:030000000215994D
:0C159900787FE4F6D8FD7581070215E0AC
:1019870075B812E4F594F593F5927591C075960EB6
:10199700F59575B2E0F5B175B40CF5B375CA0AF5EE
:0A19A700C9C2B7C2A1C2A3C2A222A6
:10137000121987121A56121AE4121AC6121625C228
:10138000B6C2C3C2C2D2CBD2C9D2B57F107E277D2E
:10139000007C001217387F107E277D007C0012171A
:1013A00038D2C2D2C3C2CBD2AF75C10643C120125C
:1013B00000667F01121A6F7B0A7D017F6412168C12
:1013C0007F107E277D007C0012173843C110120069
:1013D000667F107E277D007C0012173843C11012F3
:1013E00000667F107E277D007C0012173843C110F5
:1013F000120066C2C97F107E277D007C001217385C
:1014000043C1101200667F107E277D007C001217FA
:101410003843C1101200667F107E277D007C0012C9
:10142000173843C1101200667F107E277D007C00B4
:1014300012173843C1101200667F107E277D007C92
:101440000012173843C1101200667F107E277D00FE
:101450007C0012173843C1101200667F107E277D72
:10146000007C0012173843C110120066E4FF121A04
:101470006FE478A9F243C11012006643C110121044
:0F148000B143C110121A2012000E1218F680E6A6
:10148F00810100810400810000810C00820A0001AB
:10149F00810D018406000000008102028105028196
:0514AF000E02810302A2
:091AF2002085037F00227F012200
:091AFB002086037F00227F0122F6
:091B04002087037F00227F0122EB
:091B0D002090037F00227F0122D9
:091B16002091037F00227F0122CF
:091B1F0020B3037F00227F0122A4
:091B280020C7037F00227F012287
:091B31002092037F00227F0122B3
:091B3A002093037F00227F0122A9
:091B43002094037F00227F01229F
:091B4C002095037F00227F012295
:091B550020B4037F00227F01226D
:091B5E0020CA037F00227F01224E
:091B67002084037F00227F01228B
:091B70002083037F00227F012283
:091B79002082037F00227F01227B
:091B82002081037F00227F012273
:091B8B002080037F00227F01226B
:091B940020C6037F00227F01221C
:091B9D0020C5037F00227F012214
:101A200043C110D37850E2943C18E2648094804023
:0B1A300002D2C2784CE27002D2C22247
:10000E0043C110780DE27002D2B6780DE2B401024F
:03001E00C2B62245
:0614B400811D01814A00C8
:101A56005389CF438E40758DFE758BE0D28E538EA3
:091A6600FE759850D2BCD2AC22EE
:03002300020026B2
:10002600C0E0C0D075D000C000309827C298784A8A
:10003600E2D3940D4004E4F2800E784AE2240FF8ED
:10004600E599F2784AE204F2784AE2B40D05781DA1
:0A0056007401F2D000D0D0D0E032E7
:0A19590078B2EBF208EAF208E9F2B6
:10196300E4FFEFC39D501C78B2E2FB08E2FA08E201
:10197300F98F8275830012123DF5993099FDC29952
:031983000F80DFF3
:01198600223E
:081BA6007F037E03DEFEDFFA7F
:011BAE002214
:081BAF007F077E02DEFEDFFA73
:011BB700220B
:101738008041E4FFFEFDFC78B2E2FB08E2F908E232
:0B174800FA08E2CBF8D31212BF402FCA
:0D1753000078B67445F278B6E214F270F931
:1017600078B2E2FC08E2FD08E2FE08E224FFFFEEA8
:1017700034FFFEED34FFFDEC34FFFC78B21212D0E2
:0217800080B82F
:011782002244
:0D1AD600EFD3940040077E34DEFE1F80F346
:011AE30022E0
:1019B100E4FDD2A6121BA6C2A67F30121AD6D2A669
:1019C1007F06121AD6A2A6E433FD7F18121AD6EDAD
:0819D10070047F0180027F0019
:0119D90022EB
:1019FE00E4FC7D08C2A6121BA6ECC313FCD2A612F1
:101A0E001BAF30A6034480FC7F05121AD6DDE5AF6E
:011A1E0004C3
:011A1F0022A4
:0219DA00AD0757
:1019DC007C08C2A6121BA6ED30E004D2A68002C27F
:1019EC00A67F06121AD6D2A6EDC313FD121BA6DCD7
:0119FC00E109
:0119FD0022C7
:0A17830078B7EBF208EAF208E9F289
:10178D001219B108EFF27FCC1219DA7FBE1219DAF5
:10179D001219FEAB071219FEEFFEEBFF7C007D1058
:1017AD0012126A78B7E2FB08E2FA08E2F9EE8FF05E
:0617BD001212A008E2FF79
:0117C3002203
:101AB4001219B1AB077FCC1219DA7F441219DAAFCD
:011AC400031E
:011AC50022FE
:101A3B00121AB47BFE7A00794F121783784CEFF2AF
:0A1A4B00E2700774FF784FF208F212
:011A5500226E
:1014BA0081A50081A800818800819601818600812A
:1014CA008700818B01818C01818901818A0181A137
:1014DA000081A20081950081970081A40081850086
:1014EA00819C0081A000847B0000000084810000B0
:1014FA00000081710081740384980000000081A7B4
:10150A0000818E00815101818F00815200819000FB
:10151A00815700815600815300819F008463000037
:10152A00000081540081550081A300819100815AF5
:10153A0000816100815800818D00819E00819400A4
:10154A0081760081620081590082920000827F00C8
:10155A0000846D00000000817200816C00817500BA
:10156A0084680000000084770000000081A60081E2
:0B157A005D008173FF816700819D0010
:101A8800E478A1F27895F2C2B7C2A1FFFE1217C49A
:061A9800E4FFFE0218024B
:101625005396F15395F153A0F153B27F53B17F53C4
:10163500B07F43BA8090FFF2E4F090FFF0F0A3741E
:1016450064F090FF00E4F0A304F0A3E4F0A3F0A39A
:10165500F090FF10F0A304F0A3E4F0A3F0A3F09042
:10166500FF20F0A304F0A3E4F0A3F0A3F090FF3073
:10167500F0A304F0A3E4F0A3F0A3F0F5F175F53FB2
:0716850043F58053BA7F22F8
:1017C4008F828E83E5824583700653F5FEC2B7226D
:1017D400AF82AE83E4FCFD7B64FAF9F8C31212BF56
:1017E400700653F5FED2B72243BA80AE83AF82901F
:0E17F400FF00EEF0A3EFF053BA7F43F50122A1
:101802008F828E83E5824583700653F5FDC2A12245
:10181200AF82AE83E4FCFD7B64FAF9F8C31212BF17
:10182200700653F5FDD2A12243BA80AE83AF8290F7
:0E183200FF10EEF0A3EFF053BA7F43F5022251
:101840008F828E83E5824583700653F5FBC2A22208
:10185000AF82AE83E4FCFD7B64FAF9F8C31212BFD9
:10186000700653F5FBD2A22243BA80AE83AF8290BA
:0E187000FF20EEF0A3EFF053BA7F43F5042201
:10187E008F828E83E5824583700653F5F7C2A322CD
:10188E00AF82AE83E4FCFD7B64FAF9F8C31212BF9B
:10189E00700653F5F7D2A32243BA80AE83AF82907F
:0E18AE00FF30EEF0A3EFF053BA7F43F50822AF
:101A9E00E478A2F27897F2C2A3C2A2FFFE12184017
:061AAE00E4FFFE02187EB9
:10168C0078B4EFF278A17401F27895EBF278B4E2C9
:10169C00FF788BF27889EDF2E2B40119EFB46406AD
:1016AC007F647E008006788BE2FF7E001217C4E414
:1016BC00FFFE1218027889E2701B78B4E2B464065B
:1016CC007F647E008006788BE2FF7E00121802E4B5
:0616DC00FFFE1217C422FC
:1016E20078B5EFF278A27401F27897EBF278B5E26E
:1016F200FF788CF2788AEDF2E2B40119EFB4640655
:101702007F647E008006788CE2FF7E0012187EE401
:10171200FFFE121840788AE2701B78B5E2B46406C4
:101722007F647E008006788CE2FF7E00121840E41F
:06173200FFFE12187E22EA
:101A6F0078B4EFF27B0A7D017F4B1216E278717426
:091A7F0001F278B4E27874F2225D
:1010B10043C110121B5E78B2EFF2121B6778B3EFD7
:1010C100F2121B70785EEFF2788FE2B4011918E228
:1010D100B4011478A5E2700F04F2786CE27008781C
:1010E1007204F2789604F2786CE2B4012078A8E2F6
:1010F100701B04F2FF121A6F7B0F7D017F641216C1
:101101008C78A37401F2787FE4F20804F27876E235
:101111006401702DF278967403F2121A88E4FF12BA
:101121001A6FE4786CF2788EF208F2786CF27875C6
:10113100F2787FF208F27876F27892F208F2789FEC
:10114100F27896E264037039785EE26401703212DB
:101151001A88E4FF121A6FE4786CF2789604F2E4CC
:10116100788EF208F2786CF27875F278A5F278A8A8
:10117100F2787FF208F27876F27892F208F2789FAC
:10118100F27891E26401704DF278A3F2121A88E4C8
:10119100FF121A6FE4786CF27896F278981212DCEA
:1011A1000000000078A77401F2E4788EF208F2786A
:1011B1006CF27875F278A5F278A8F2787FF208F2ED
:1011C1007876F27892F208F278631212DC0000006D
:1011D10000E4789FF2785EE27021788FE2701C184B
:1011E100E27018789FE2701378B2E2B4010D08E260
:1011F10070097B017D017F4612168C785EE2B40195
:101201000D78631212DC00000000E4789FF2788F01
:10121100E2B4010E7875E2700904F2FBFD7F46121B
:02122100168C29
:0112230022A8
:1018F600121B9DEF7003785DF2785DE27023121B78
:101906009DBF011078A67401F278681212DC0000FF
:101916000000D2C9121B9DEF700778A6E27002C2C2
:02192600C922D4
:0315850081A90138
:0A19280078B2EBF208EAF208E9F2E7
:10193200E4FEFCAF05EFD39400401978B2E2FB0855
:1019420008E2F92401F218E2FA3400F21212242E0B
:06195200FE1F80E1AF065C
:01195800226C
:0418BC00E4FD7F05C3
:1018C000782C7455F208EFF208EDF2E408F208F211
:1018D0000874FEF27815E27832F2E4FE74162EF8FF
:1018E000E2FC74332EF8ECF20EEEB404EFEF2D248C
:0518F00034F8740DF254
:0118F50022D0
:1000660043C110781DE264016003020C7D780FE243
:1000760064556003020C2F7814E2F46003020C2F1F
:10008600784AE2240EF8E2640D6003020C2F7BFE30
:100096007A00790F784AE224FEFD121928784AE29E
:1000A600240DF8E26F6003020C017815E21212F5D6
:1000B60000DE0001590105D50209F303010D040A0A
:1000C600220500E1060141070B17FC0B46FD0B75E7
:1000D600FE0BA4FF00000BD30202D07818E224FE28
:1000E600600B04701F780AE4F208048005E4780ABD
:1000F600F208F278061212DC00000000780D740196
:10010600F2020A530202D07816E264026003020C7D
:1001160076FD7F051218C0E47837F27BFE7A007907
:100126002C7D0C1219287838EFF27BFE7A00792C98
:100136007D0E12195975C720020C767816E26401F5
:100146006003020C76FD7F051218C078967401F2E2
:10015600020A567816E21212F5017E0101AF02017B
:10016600EB0302FF0403B00804210904440B046FE7
:100176000E05830F000005A6E4FD7F081218C0E4F3
:100186007837F2087403F2087412F2087410F27BDE
:10019600FE7A00792C7D0F121928783BEFF27BFE50
:1001A6007A00792C7D11020C737817E224FE600325
:1001B600020C76E4FD7F061218C078377401F20847
:1001C600F2121B9DBF0104E47838F27BFE7A0079B7
:1001D6002C7D0D1219287839EFF27BFE7A00792CE6
:1001E6007D0F020C737817E224FE6072146003021E
:1001F60002D0E4FD7F061218C078377405F2E408D1
:10020600F27802E26402703C121B16BF01067838CF
:10021600E24410F2121B0DBF01067838E24408F2E0
:10022600121B04BF01067838E24404F2121AFBBF1F
:1002360001067838E24402F2121AF2BF0106783853
:10024600E24401F27BFE7A00792C7D0D12192878A2
:1002560039EFF27BFE7A00792C7D0F020C73E4FDF8
:100266007F061218C078377405F2E408F27805E2C2
:100276006402703C121B4CBF01067838E24410F24F
:10028600121B43BF01067838E24408F2121B3ABF3C
:1002960001067838E24404F2121B31BF01067838B1
:1002A600E24402F2121B28BF01067838E24401F24A
:1002B6007BFE7A00792C7D0D1219287839EFF27BB6
:1002C600FE7A00792C7D0F020C731218BC783274FA
:1002D600FFF2E408F208F208F208F2087403F27B6F
:1002E600FE7A00792C7D0C1219287838EFF27BFE05
:1002F6007A00792C7D0E020C737817E224FE707B4F
:10030600E4FD7F061218C078377407F2E408F2128B
:100316001B5EBF01067838E24401F2121B67BF017B
:10032600067838E24402F2121B70BF01067838E202
:100336004404F2121B79BF01067838E24408F2122F
:100346001B82BF01067838E24410F2121B8BBF01F4
:10035600067838E24420F2121B94BF01047838E292
:10036600F27BFE7A00792C7D0D1219287839EFF28E
:100376007BFE7A00792C7D0F020C731218BC783242
:1003860074FFF2E408F208F208F208F2087403F2C5
:100396007BFE7A00792C7D0C1219287838EFF27BD7
:1003A600FE7A00792C7D0E020C737817E224FE602B
:1003B6000A0424FC4003020C768031E4FD7F061219
:1003C60018C0784FE208E27837F2784FE2FF7838C3
:1003D600EFF27BFE7A00792C7D0D1219287839EF21
:1003E600F27BFE7A00792C7D0F020C731218BC7812
:1003F6003274FFF2E408F208F208F208F208740315
:10040600F27BFE7A00792C7D0C1219287838EFF2EF
:100416007BFE7A00792C7D0E020C731218BC78A92B
:10042600E27837F27BFE7A00792C7D0C1219287857
:1004360038EFF27BFE7A00792C7D0E020C731218CF
:10044600BC20C20778377401F28004E47837F27B67
:10045600FE7A00792C7D0C1219287838EFF27BFE93
:100466007A00792C7D0E020C737817E224FE603F29
:1004760014607414700302052524036003020554F6
:100486001218BC783274FFF2E408F208F208F20897
:10049600F2087403F27BFE7A00792C7D0C1219287F
:1004A6007838EFF27BFE7A00792C7D0E020C7312FF
:1004B60018BCE47837F27803E2B40211121B55BF78
:1004C6000106E47837F2800578377401F27BFE7A0C
:1004D60000792C7D0C1219287838EFF27BFE7A0011
:1004E600792C7D0E020C731218BCE47837F2780E64
:1004F600E2B40211121B1FBF0106E47837F2800531
:1005060078377401F27BFE7A00792C7D0C1219285B
:100516007838EFF27BFE7A00792C7D0E020C73128E
:1005260018BC783274FFF2E408F208F208F208F216
:10053600087403F27BFE7A00792C7D0C1219287858
:1005460038EFF27BFE7A00792C7D0E020C731218BE
:10055600BC783274FFF2E408F208F208F208F208F6
:100566007403F27BFE7A00792C7D0C1219287838F8
:10057600EFF27BFE7A00792C7D0E020C731218BC0A
:100586007896E27837F27BFE7A00792C7D0C121988
:10059600287838EFF27BFE7A00792C7D0E020C73F8
:1005A6001218BC783274FFF2E408F208F208F20876
:1005B600F2087403F27BFE7A00792C7D0C1219285E
:1005C6007838EFF27BFE7A00792C7D0E020C737878
:1005D60016E21470030206C024FA607924FB700345
:1005E6000207EF14700302092B240A60030209C4F0
:1005F6007818E26401702AC2C2783720C203F280FA
:10060600037401F21218BC7BFE7A00792C7D0C1261
:1006160019287838EFF27BFE7A00792C7D0E020CD1
:10062600737818E264026003020C76D2C27837301F
:10063600C203F280037401F21218BC7BFE7A0079C1
:100646002C7D0C1219287838EFF27BFE7A00792C73
:100656007D0E020C737818E26401702AC2C37837E3
:1006660020C303F280037401F21218BC7BFE7A00E9
:10067600792C7D0C1219287838EFF27BFE7A0079F6
:100686002C7D0E020C737818E264026003020C766D
:10069600D2C3783730C303F280037401F21218BC58
:1006A6007BFE7A00792C7D0C1219287838EFF27BC4
:1006B600FE7A00792C7D0E020C737817E224FE6018
:1006C600680460030207C07818E26401702AD2B594
:1006D600783730B503F280037401F21218BC7BFE42
:1006E6007A00792C7D0C1219287838EFF27BFE7A85
:1006F60000792C7D0E020C737818E26402702AC20F
:10070600B5783720B503F280037401F21218BC7B6A
:10071600FE7A00792C7D0C1219287838EFF27BFED0
:100726007A00792C7D0E020C737818E26401702A27
:10073600D2C9783730C903F280037401F21218BCAB
:100746007BFE7A00792C7D0C1219287838EFF27B23
:10075600FE7A00792C7D0E020C737818E264027022
:100766002AC2C9783720C903F280037401F212182D
:10077600BC7BFE7A00792C7D0C1219287838EFF2B2
:100786007BFE7A00792C7D0E020C731218BC78322F
:1007960074FFF2E408F208F208F208F2087403F2B1
:1007A6007BFE7A00792C7D0C1219287838EFF27BC3
:1007B600FE7A00792C7D0E020C731218BC78327406
:1007C600FFF2E408F208F208F208F2087403F27B7A
:1007D600FE7A00792C7D0C1219287838EFF27BFE10
:1007E6007A00792C7D0E020C737817E224FE603CA9
:1007F600147003020897240260030208FC1218BC56
:10080600783274FFF2E408F208F208F208F208748B
:1008160003F27BFE7A00792C7D0C1219287838EFCA
:10082600F27BFE7A00792C7D0E020C737818E26456
:1008360001702D7B0A7D017F6412168CE47837F2F5
:10084600FD7F051218C07BFE7A00792C7D0C1219EB
:10085600287838EFF27BFE7A00792C7D0E020C7335
:100866007818E264026003020C76121A88E478377C
:10087600F2FD7F051218C07BFE7A00792C7D0C12E2
:1008860019287838EFF27BFE7A00792C7D0E020C5F
:10089600737818E26401702D7B0A7D017F6412165D
:1008A600E2E47837F2FD7F051218C07BFE7A007904
:1008B6002C7D0C1219287838EFF27BFE7A00792C01
:1008C6007D0E020C737818E264026003020C761245
:1008D6001A9EE47837F2FD7F051218C07BFE7A0077
:1008E600792C7D0C1219287838EFF27BFE7A007984
:1008F6002C7D0E020C731218BC783274FFF2E408D9
:10090600F208F208F208F2087403F27BFE7A007924
:100916002C7D0C1219287838EFF27BFE7A00792CA0
:100926007D0E020C737817E270657818E264017028
:100936002AD2CB783730CB03F280037401F2121837
:10094600BC7BFE7A00792C7D0C1219287838EFF2E0
:100956007BFE7A00792C7D0E020C737818E2640215
:100966006003020C76C2CB783720CB03F280037487
:1009760001F21218BC7BFE7A00792C7D0C12192824
:100986007838EFF27BFE7A00792C7D0E020C73121A
:1009960018BC783274FFF2E408F208F208F208F2A2
:1009A600087403F27BFE7A00792C7D0C12192878E4
:1009B60038EFF27BFE7A00792C7D0E020C7312184A
:1009C600BC783274FFF2E408F208F208F208F20882
:1009D6007403F27BFE7A00792C7D0C121928783884
:1009E600EFF27BFE7A00792C7D0E020C731218BC96
:1009F600783274FFF2E408F208F208F208F208749A
:100A060003F27BFE7A00792C7D0C1219287838EFD8
:100A1600F27BFE7A00792C7D0E020C737816E26466
:100A2600016003020C7608E224FE604224FD607534
:100A360024026003020AE87818E2B4010578027419
:100A460001F27818E2B4020578027402F21218BCB8
:100A5600E47837F27BFE7A00792C7D0C121928781F
:100A660038EFF27BFE7A00792C7D0E020C73781833
:100A7600E2B4010578057401F27818E2B40205784B
:100A8600057402F21218BCE47837F27BFE7A00791C
:100A96002C7D0C1219287838EFF27BFE7A00792C1F
:100AA6007D0E020C737818E2B40108780E7401F218
:100AB6007803F27818E2B40208780E7402F278032A
:100AC600F21218BCE47837F27BFE7A00792C7D0CA2
:100AD6001219287838EFF27BFE7A00792C7D0E0207
:100AE6000C731218BC783274FFF2E408F208F208AC
:100AF600F208F2087403F27BFE7A00792C7D0C1260
:100B060019287838EFF27BFE7A00792C7D0E020CDC
:100B1600731218BC783274FFF2E408F208F208F295
:100B260008F2087403F27BFE7A00792C7D0C121908
:100B3600287838EFF27BFE7A00792C7D0E020C7352
:100B46001218BC783274FFF2E408F208F208F208D0
:100B5600F2087403F27BFE7A00792C7D0C121928B8
:100B66007838EFF27BFE7A00792C7D0E020C731238
:100B760018BC783274FFF2E408F208F208F208F2C0
:100B8600087403F27BFE7A00792C7D0C1219287802
:100B960038EFF27BFE7A00792C7D0E020C73121868
:100BA600BC783274FFF2E408F208F208F208F208A0
:100BB6007403F27BFE7A00792C7D0C1219287838A2
:100BC600EFF27BFE7A00792C7D0E020C731218BCB4
:100BD600783274FFF2E408F208F208F208F20874B8
:100BE60003F27BFE7A00792C7D0C1219287838EFF7
:100BF600F27BFE7A00792C7D0E80721218BC783258
:100C060074FFF2E408F208F208F208F2087402F23D
:100C16007BFE7A00792C7D0C1219287838EFF27B4E
:100C2600FE7A00792C7D0E80441218BC783274FF4F
:100C3600F2E408F208F208F208F2780FE26455606E
:100C46000578377401F2784AE2240EF8E2640D6002
:100C56000578377408F27BFE7A00792C7D0C121920
:100C6600287838EFF27BFE7A00792C7D0E1219591E
:070C7600E4784AF2781DF258
:010C7D002254
:1015880082AA000082AC03E682AE000082B00000AE
:0E1AE4005389FC758CEEE4F58AD2A9D28C22CF
:03000B00020C7E66
:100C7E00C0E0C0F0C083C082C0D075D000C000C03C
:0D0C8E0001C002C003C004C005C006C007BD
:100C9B0078AFE22401F218E23400F278ABE22401DF
:100CAB00F218E23400F278ADE22401F218E23400DB
:100CBB00F218E264C8700218E2700778AAF208F220
:100CCB00B2B278ADE2B4E80C18E2B40307E4F20870
:100CDB00F2121A3B7871E2640170497874E2701F6A
:100CEB00785FE27854F2121B79785FEFF27854E276
:100CFB00B4010C785FE27007121A9E7871E4F278F7
:100D0B0074E2B4011F7860E27855F2121B827860AE
:100D1B00EFF27855E2B4010C7860E27007121A9E7C
:100D2B007871E4F27872E2B40149786DE2FC08E282
:100D3B00FD08E2FE08E22401FFE43EFEE43DFDE493
:100D4B003CFC786D1212D0E47F087E07FDFC786DB9
:100D5B00E2FB08E2F908E2FA08E2CBF8C31212BF91
:100D6B007011786C04F27872E4F2786D1212DC0078
:100D7B0000000078AFE26402700218E26003020E1A
:100D8B009D78AEF208F2785BE27851F2121B5E7836
:100D9B005BEFF27851E2B40109785BE27004788E74
:100DAB0004F2785CE27852F2121B67785CEFF2780F
:100DBB0052E2700B785CE2B40105788F7401F27823
:100DCB005EE27853F2121B70785EEFF27853E2FF1B
:100DDB00B40110785EE2700B785704F27890E4F26D
:100DEB00789FF2EF701F785EE2B4011978567401A8
:100DFB00F27890E4F27857F278631212DC0000007C
:100E0B0000789FE4F278A3E2640170317861E278B4
:100E1B0058F2121B8B7861EFF27858E2FFB401099C
:100E2B007861E27004785A04F2785AE2B4010EEF5A
:100E3B00700B7861E2B40105788D7401F2788DE264
:100E4B00B40121789EE204F2787FE4F208F278761E
:100E5B00F2789EE2B4C80DE4F2788DF2789104F248
:100E6B00785AE4F27880E26401700218E270237819
:100E7B0093E22401F218E23400F2C308E29408185A
:100E8B00E29407400DE4F208F2787FF208F27876EC
:100E9B0004F2785EE270467863E2FC08E2FD08E259
:100EAB00FE08E22401FFE43EFEE43DFDE43CFC7859
:100EBB00631212D0E47F707E17FDFC7863E2FB08AF
:100ECB00E2F908E2FA08E2CBF8C31212BF700E780F
:100EDB00631212DC00000000789F7401F2787BE251
:100EEB00FC08E2FD08E2FE08E22401FFE43EFEE41A
:100EFB003DFDE43CFC787B1212D07881E2FC08E2E9
:100F0B00FD08E2FE08E22401FFE43EFEE43DFDE4C1
:100F1B003CFC78811212D07895E275F0C8A4FFAE34
:100F2B00F0E4FCFD787BE2FB08E2F908E2FA08E268
:100F3B00CBF8C31212BF401378A1E4F27895F27884
:100F4B007B1212DC00000000121A887897E275F011
:100F5B00C8A4FFAEF0E4FCFD7881E2FB08E2F908DF
:100F6B00E2FA08E2CBF8C31212BF401378A2E4F204
:100F7B007897F278811212DC00000000121A9E782A
:100F8B009CE2B4012178B1E22401F218E23400F2C0
:100F9B0008E2B4581118E2B4020CE4F208F27885B6
:100FAB0004F2789CE4F278A7E2B4014C7898E2FC66
:100FBB0008E2FD08E2FE08E22401FFE43EFEE43D08
:100FCB00FDE43CFC78981212D0E47F407E06FDFCD9
:100FDB007898E2FB08E2F908E2FA08E2CBF8C312D0
:100FEB0012BF401478981212DC000000007896743F
:100FFB0001F2D2C378A7E4F2780BE2640170021815
:10100B00E2703D7806E2FC08E2FD08E2FE08E2240D
:10101B0001FFE43EFEE43DFDE43CFC78061212D0F9
:10102B007F407E0D7D037C007806E2FB08E2F90829
:10103B00E2FA08E2CBF8C31212BF4004780DE4F2D7
:10104B00121B9DEF70457868E2FC08E2FD08E2FE9A
:10105B0008E22401FFE43EFEE43DFDE43CFC78683D
:10106B001212D0E47FE87E03FDFC7868E2FB08E215
:10107B00F908E2FA08E2CBF8C31212BF700D7868D8
:0B108B001212DC0000000078A6E4F266
:10109600D007D006D005D004D003D002D001D000AE
:0B10A600D0D0D082D083D0F0D0E03258
:101AC600438E0475D7AE75D6FB43AF04438E102202
:0300630002000395
:0100030032CA
:1015A500021370E493A3F8E493A34003F68001F2D9
:1015B50008DFF48029E493A3F85407240CC8C33347
:1015C500C4540F4420C8834004F456800146F6DF16
:1015D500E4800B010204081020408090148FE47E03
:1015E500019360BCA3FF543F30E509541FFEE4930B
:1015F500A360010ECF54C025E060A840B8E493A3D2
:10160500FAE493A3F8E493A3C8C582C8CAC583CAFC
:10161500F0A3C8C582C8CAC583CADFE9DEE780BEB4
:011598000052
:10122400BB010689828A83E0225002E722BBFE02C8
:09123400E32289828A83E49322FB
:10123D00BB010CE58229F582E5833AF583E0225066
:10124D0006E92582F8E622BBFE06E92582F8E222B0
:0D125D00E58229F582E5833AF583E49322CA
:10126A00C2D5EC30E709B2D5E4C39DFDE49CFCEE9F
:10127A0030E715B2D5E4C39FFFE49EFE12131BC3E9
:10128A00E49DFDE49CFC800312131B30D507C3E4E4
:06129A009FFFE49EFE220E
:1012A000BB010A89828A83F0E5F0A3F0225006F799
:0F12B00009A7F01922BBFE06F3E5F009F3192296
:1012BF00EB9FF5F0EA9E42F0E99D42F0E89C45F085
:0112CF0022FC
:0C12D000ECF208EDF208EEF208EFF2225A
:1012DC00D083D082E493F208740193F208740293E1
:0912EC00F208740393F274047318
:1012F500D083D082F8E4937012740193700DA3A388
:1013050093F8740193F5828883E47374029368609B
:06131500EFA3A3A380DF9B
:10131B00BC000BBE0029EF8DF084FFADF022E4CCB6
:10132B00F875F008EF2FFFEE33FEEC33FCEE9DEC7F
:10133B00984005FCEE9DFE0FD5F0E9E4CEFD22EDC5
:10134B00F8F5F0EE8420D21CFEADF075F008EF2F0F
:10135B00FFED33FD4007985006D5F0F222C398FD00
:05136B000FD5F0EA229D
:00000001FF
