:0300000002157E68
:0C157E00787FE4F6D8FD7581070215C5E2
:10193A0075B812E4F594F593F5927591C075960E03
:10194A00F59575B2E0F5B175B40CF5B375CA0AF53B
:0A195A00C9C2B7C2A1C2A3C2A222F3
:1013620012193A121A53121ACB121AAD12160AC2D3
:10137200B6C2C3C2C2D2CBD2C9D2B57F107E277D3C
:10138200007C0012171D7F107E277D007C00121743
:101392001DD2C2D2C3C2CBD2AF75C10643C1201285
:1013A2000066E4FF121A6C7B0A7D017F64121671DB
:1013B2007F107E277D007C0012171D43C110120092
:1013C200667F107E277D007C0012171D43C110121C
:1013D20000667F107E277D007C0012171D43C1101E
:1013E200120066C2C97F107E277D007C0012171D85
:1013F20043C1101200667F107E277D007C00121709
:101402001D43C1101200667F107E277D007C0012F2
:10141200171D43C1101200667F107E277D007C00DD
:1014220012171D43C1101200667F107E277D007CBB
:101432000012171D43C1101200667F107E277D0027
:101442007C0012171D43C1101200667F107E277D9B
:10145200007C0012171D43C1101200667F01121A90
:101462006CE478A0F243C11012006643C11012105E
:0F1472006C43C110121A1D12000E12198D80E664
:10148100810100810400810000810C00820A0001B9
:10149100810D0184060000000081020281050281A4
:0514A1000E02810302B0
:091AD9002085037F00227F012219
:091AE2002086037F00227F01220F
:091AEB002087037F00227F012205
:091AF4002090037F00227F0122F3
:091AFD002091037F00227F0122E9
:091B060020B3037F00227F0122BD
:091B0F0020C7037F00227F0122A0
:091B18002092037F00227F0122CC
:091B21002093037F00227F0122C2
:091B2A002094037F00227F0122B8
:091B33002095037F00227F0122AE
:091B3C0020B4037F00227F012286
:091B450020CA037F00227F012267
:091B4E002084037F00227F0122A4
:091B57002083037F00227F01229C
:091B60002082037F00227F012294
:091B69002081037F00227F01228C
:091B72002080037F00227F012284
:091B7B0020C6037F00227F012235
:091B840020C5037F00227F01222D
:101A1D0043C110D37850E2943C18E2648094804026
:0B1A2D0002D2C2784CE27002D2C2224A
:10000E0043C110780DE27002D2B6780DE2B401024F
:03001E00C2B62245
:0614A600811D01814A00D6
:101A53005389CF438E40758DFE758BE0D28E538EA6
:091A6300FE759850D2BCD2AC22F1
:03002300020026B2
:10002600C0E0C0D075D000C000309827C298784A8A
:10003600E2D3940D4004E4F2800E784AE2240FF8ED
:10004600E599F2784AE204F2784AE2B40D05781DA1
:0A0056007401F2D000D0D0D0E032E7
:0A190C0078ABEBF208EAF208E9F20A
:10191600E4FFEFC39D501C78ABE2FB08E2FA08E255
:10192600F98F8275830012122FF5993099FDC299AD
:031936000F80DF40
:01193900228B
:081B8D007F037E03DEFEDFFA98
:011B9500222D
:081B96007F077E02DEFEDFFA8C
:011B9E002224
:10171D008041E4FFFEFDFC78ABE2FB08E2F908E254
:0B172D00FA08E2CBF8D31212B1402FF3
:0D1738000078AF7445F278AFE214F270F95A
:1017450078ABE2FC08E2FD08E2FE08E224FFFFEECA
:1017550034FFFEED34FFFDEC34FFFC78AB1212C212
:0217650080B84A
:01176700225F
:0D1ABD00EFD3940040077E34DEFE1F80F35F
:011ACA0022F9
:10196400E4FDD2A6121B8DC2A67F30121ABDD2A6E8
:101974007F06121ABDA2A6E433FD7F18121ABDED2C
:0819840070047F0180027F0066
:01198C002238
:1019DA00E4FC7D08C2A6121B8DECC313FCD2A6122E
:1019EA001B9630A6034480FC7F05121ABDDDE5AFC5
:0119FA0004E8
:0119FB0022C9
:0219B600AD077B
:1019B8007C08C2A6121B8DED30E004D2A68002C2BC
:1019C800A67F06121ABDD2A6EDC313FD121B8DDC2D
:0119D800E12D
:0119D90022EB
:0A17680078B0EBF208EAF208E9F2AB
:1017720012196408EFF27FCC1219B67FBE1219B6A5
:101782001219DAAB071219DAEFFEEBFF7C007D10BB
:1017920012125C78B0E2FB08E2FA08E2F9EE8FF08E
:0617A20012129208E2FFA2
:0117A800221E
:101A9B00121964AB077FCC1219B67F441219B6AF7B
:011AAB000337
:011AAC002217
:101A3800121A9B7BFE7A00794F121768784CEFF2E6
:0A1A4800E2700774FF784FF208F215
:011A52002271
:1014AC00819A00819D00817E00818C01817C00816C
:1014BC007D00818101818201817F01818001819682
:1014CC0000819700818B00818D00819900817B00C8
:1014DC0081920081950084710000000084770000E7
:1014EC000000816900816B03848E00000000819CE8
:1014FC000081840081510181850081520081860028
:10150C0081570081560081530081940081540081E1
:10151C005500819800818700815A008162008158B2
:10152C0000818300819300818A00816C00816300BB
:10153C00815900829E0000815B00828800008275C8
:10154C000000846500000000846D00000000819B99
:0A155C0000815E00816AFF816400D7
:0B19FC007875F208F2786CF27887F240
:101A0700E47896F2788BF2C2B7C2A1FFFE1217A94B
:061A1700E4FFFE0217E7E8
:10160A005396F15395F153A0F153B27F53B17F53DF
:10161A00B07F43BA8090FFF2E4F090FFF0F0A37439
:10162A0064F090FF00E4F0A304F0A3E4F0A3F0A3B5
:10163A00F090FF10F0A304F0A3E4F0A3F0A3F0905D
:10164A00FF20F0A304F0A3E4F0A3F0A3F090FF308E
:10165A00F0A304F0A3E4F0A3F0A3F0F5F175F53FCD
:07166A0043F58053BA7F2213
:1017A9008F828E83E5824583700653F5FEC2B72288
:1017B900AF82AE83E4FCFD7B64FAF9F8C31212B17F
:1017C900700653F5FED2B72243BA80AE83AF82903A
:0E17D900FF00EEF0A3EFF053BA7F43F50122BC
:1017E7008F828E83E5824583700653F5FDC2A12261
:1017F700AF82AE83E4FCFD7B64FAF9F8C31212B141
:10180700700653F5FDD2A12243BA80AE83AF829012
:0E181700FF10EEF0A3EFF053BA7F43F502226C
:101825008F828E83E5824583700653F5FBC2A22223
:10183500AF82AE83E4FCFD7B64FAF9F8C31212B102
:10184500700653F5FBD2A22243BA80AE83AF8290D5
:0E185500FF20EEF0A3EFF053BA7F43F504221C
:101863008F828E83E5824583700653F5F7C2A322E8
:10187300AF82AE83E4FCFD7B64FAF9F8C31212B1C4
:10188300700653F5F7D2A32243BA80AE83AF82909A
:0E189300FF30EEF0A3EFF053BA7F43F50822CA
:101A8500E47897F2788DF2C2A3C2A2FFFE12182560
:061A9500E4FFFE021863ED
:1016710078ADEFF278967401F2788BEBF278ADE207
:10168100FF7881F2787FEDF2E2B40119EFB46406DC
:101691007F647E0080067881E2FF7E001217A9E454
:1016A100FFFE1217E7787FE2701B78ADE2B46406A3
:1016B1007F647E0080067881E2FF7E001217E7E4F6
:0616C100FFFE1217A92232
:1016C70078AEEFF278977401F2788DEBF278AEE2AC
:1016D700FF7882F27880EDF2E2B40119EFB4640684
:1016E7007F647E0080067882E2FF7E00121863E442
:1016F700FFFE1218257880E2701B78AEE2B464060C
:101707007F647E0080067882E2FF7E00121825E45F
:06171700FFFE1218632220
:101A6C0078ADEFF27B0A7D017F1E1216C778697480
:091A7C0001F278ADE2786BF22270
:10106C0043C110121B4578ABEFF2121B4E78ACEF5C
:10107C00F2121B57785FEFF278ABE2640160030267
:10108C0011E508E260030211E57885E26401600372
:10109C000211E518E2640160030211E5121B577896
:1010AC005FEFF26011789AE26401600A789DE26465
:1010BC000160030211E5789AE27014788C7402F2E4
:1010CC00789814F2789AF27892F2E4FF121A6C780B
:1010DC008AE2B4010F121A07E4785BF2789EF208E8
:1010EC00F2788AF2789DE27023787BE2B4011D7865
:1010FC008C7402F2789D14F2E47892F27B0F7D01ED
:10110C007F641216717875E4F20804F27887E26451
:10111C0001703F1219FC7F01121A6CE4788CF27882
:10112C008E1212CE00000000789C7401F2E47864F8
:10113C00F2787BF27885F218F2789AF2789DF27850
:10114C0098F2786CF27888F208F27875F208F278F6
:10115C0094F2786CE264017033F27864E2FFB401CB
:10116C001BE4787BF27875F208F2786CF27895F2E1
:10117C007888F208F2788C7403F2D2C2EF700D7892
:10118C006404F2E4FF121A6CE4789DF2788CE26449
:10119C00037046785FE26401703F1219FC7F011204
:1011AC001A6C788C7401F2788E1212CE000000004A
:1011BC00789C7401F2E47864F2787BF27885F2180A
:1011CC00F2789AF2789DF27898F2786CF27888F24C
:1011DC0008F27875F208F2D2C3785FE2702B78854A
:1011EC00E2702618E270227894E2701578ABE2B4C3
:1011FC00010D08E270097B017D017F3C121671C262
:09120C00C37894E2B40102D2C3DC
:0112150022B6
:10198D00121B84EF7003785EF2785EE2701A121B00
:10199D0084BF0107789B7401F2D2C9121B84EF70CA
:0919AD0007789BE27002C2C92216
:0315660081A00160
:0A18DB0078ABEBF208EAF208E9F23C
:1018E500E4FEFCAF05EFD39400401978ABE2FB08AA
:1018F50008E2F92401F218E2FA3400F21212162E67
:06190500FE1F80E1AF06A9
:01190B0022B9
:0418A100E4FD7F05DE
:1018A500782C7455F208EFF208EDF2E408F208F22C
:1018B5000874FEF27815E27832F2E4FE74162EF81A
:1018C500E2FC74332EF8ECF20EEEB404EFEF2D24A7
:0518D50034F8740DF26F
:0118DA0022EB
:1000660043C110781DE264016003020C7D780FE243
:1000760064556003020C2F7814E2F46003020C2F1F
:10008600784AE2240EF8E2640D6003020C2F7BFE30
:100096007A00790F784AE224FEFD1218DB784AE2EC
:1000A600240DF8E26F6003020C017815E21212E7E4
:1000B60000DE0001590105D50209F303010D040A0A
:1000C600220500E1060141070B17FC0B46FD0B75E7
:1000D600FE0BA4FF00000BD30202D07818E224FE28
:1000E600600B04701F780AE4F208048005E4780ABD
:1000F600F208F278061212CE00000000780D7401A4
:10010600F2020A530202D07816E264026003020C7D
:1001160076FD7F051218A5E47837F27BFE7A007922
:100126002C7D0C1218DB7838EFF27BFE7A00792CE6
:100136007D0E12190C75C720020C767816E2640142
:100146006003020C76FD7F051218A5788C7401F207
:10015600020A567816E21212E7017E0101AF020189
:10016600EB0302FF0403B00804210904440B046FE7
:100176000E05830F000005A6E4FD7F081218A5E40E
:100186007837F2087403F2087412F2087410F27BDE
:10019600FE7A00792C7D0F1218DB783BEFF27BFE9E
:1001A6007A00792C7D11020C737817E224FE600325
:1001B600020C76E4FD7F061218A578377401F20862
:1001C600F2121B84BF0104E47838F27BFE7A0079D0
:1001D6002C7D0D1218DB7839EFF27BFE7A00792C34
:1001E6007D0F020C737817E224FE6072146003021E
:1001F60002D0E4FD7F061218A578377405F2E408EC
:10020600F27802E26402703C121AFDBF01067838E9
:10021600E24410F2121AF4BF01067838E24408F2FA
:10022600121AEBBF01067838E24404F2121AE2BF52
:1002360001067838E24402F2121AD9BF010678386C
:10024600E24401F27BFE7A00792C7D0D1218DB78F0
:1002560039EFF27BFE7A00792C7D0F020C73E4FDF8
:100266007F061218A578377405F2E408F27805E2DD
:100276006402703C121B33BF01067838E24410F268
:10028600121B2ABF01067838E24408F2121B21BF6E
:1002960001067838E24404F2121B18BF01067838CA
:1002A600E24402F2121B0FBF01067838E24401F263
:1002B6007BFE7A00792C7D0D1218DB7839EFF27B04
:1002C600FE7A00792C7D0F020C731218A178327415
:1002D600FFF2E408F208F208F208F2087403F27B6F
:1002E600FE7A00792C7D0C1218DB7838EFF27BFE53
:1002F6007A00792C7D0E020C737817E224FE707B4F
:10030600E4FD7F061218A578377407F2E408F212A6
:100316001B45BF01067838E24401F2121B4EBF01AD
:10032600067838E24402F2121B57BF01067838E21B
:100336004404F2121B60BF01067838E24408F21248
:100346001B69BF01067838E24410F2121B72BF0126
:10035600067838E24420F2121B7BBF01047838E2AB
:10036600F27BFE7A00792C7D0D1218DB7839EFF2DC
:100376007BFE7A00792C7D0F020C731218A178325D
:1003860074FFF2E408F208F208F208F2087403F2C5
:100396007BFE7A00792C7D0C1218DB7838EFF27B25
:1003A600FE7A00792C7D0E020C737817E224FE602B
:1003B6000A0424FC4003020C768031E4FD7F061219
:1003C60018A5784FE208E27837F2784FE2FF7838DE
:1003D600EFF27BFE7A00792C7D0D1218DB7839EF6F
:1003E600F27BFE7A00792C7D0F020C731218A1782D
:1003F6003274FFF2E408F208F208F208F208740315
:10040600F27BFE7A00792C7D0C1218DB7838EFF23D
:100416007BFE7A00792C7D0E020C731218A178A04F
:10042600E27837F27BFE7A00792C7D0C1218DB78A5
:1004360038EFF27BFE7A00792C7D0E020C731218CF
:10044600A120C20778377401F28004E47837F27B82
:10045600FE7A00792C7D0C1218DB7838EFF27BFEE1
:100466007A00792C7D0E020C737817E224FE603F29
:1004760014607414700302052524036003020554F6
:100486001218A1783274FFF2E408F208F208F208B2
:10049600F2087403F27BFE7A00792C7D0C1218DBCD
:1004A6007838EFF27BFE7A00792C7D0E020C7312FF
:1004B60018A1E47837F27803E2B40211121B3CBFAC
:1004C6000106E47837F2800578377401F27BFE7A0C
:1004D60000792C7D0C1218DB7838EFF27BFE7A005F
:1004E600792C7D0E020C731218A1E47837F2780E7F
:1004F600E2B40211121B06BF0106E47837F280054A
:1005060078377401F27BFE7A00792C7D0C1218DBA9
:100516007838EFF27BFE7A00792C7D0E020C73128E
:1005260018A1783274FFF2E408F208F208F208F231
:10053600087403F27BFE7A00792C7D0C1218DB78A6
:1005460038EFF27BFE7A00792C7D0E020C731218BE
:10055600A1783274FFF2E408F208F208F208F20811
:100566007403F27BFE7A00792C7D0C1218DB783846
:10057600EFF27BFE7A00792C7D0E020C731218A125
:10058600788CE27837F27BFE7A00792C7D0C121893
:10059600DB7838EFF27BFE7A00792C7D0E020C7345
:1005A6001218A1783274FFF2E408F208F208F20891
:1005B600F2087403F27BFE7A00792C7D0C1218DBAC
:1005C6007838EFF27BFE7A00792C7D0E020C737878
:1005D60016E21470030206C024FA607924FB700345
:1005E6000207EF14700302092B240A60030209C4F0
:1005F6007818E26401702AC2C2783720C203F280FA
:10060600037401F21218A17BFE7A00792C7D0C127C
:1006160018DB7838EFF27BFE7A00792C7D0E020C1F
:10062600737818E264026003020C76D2C27837301F
:10063600C203F280037401F21218A17BFE7A0079DC
:100646002C7D0C1218DB7838EFF27BFE7A00792CC1
:100656007D0E020C737818E26401702AC2C37837E3
:1006660020C303F280037401F21218A17BFE7A0004
:10067600792C7D0C1218DB7838EFF27BFE7A007944
:100686002C7D0E020C737818E264026003020C766D
:10069600D2C3783730C303F280037401F21218A173
:1006A6007BFE7A00792C7D0C1218DB7838EFF27B12
:1006B600FE7A00792C7D0E020C737817E224FE6018
:1006C600680460030207C07818E26401702AD2B594
:1006D600783730B503F280037401F21218A17BFE5D
:1006E6007A00792C7D0C1218DB7838EFF27BFE7AD3
:1006F60000792C7D0E020C737818E26402702AC20F
:10070600B5783720B503F280037401F21218A17B85
:10071600FE7A00792C7D0C1218DB7838EFF27BFE1E
:100726007A00792C7D0E020C737818E26401702A27
:10073600D2C9783730C903F280037401F21218A1C6
:100746007BFE7A00792C7D0C1218DB7838EFF27B71
:10075600FE7A00792C7D0E020C737818E264027022
:100766002AC2C9783720C903F280037401F212182D
:10077600A17BFE7A00792C7D0C1218DB7838EFF21B
:100786007BFE7A00792C7D0E020C731218A178324A
:1007960074FFF2E408F208F208F208F2087403F2B1
:1007A6007BFE7A00792C7D0C1218DB7838EFF27B11
:1007B600FE7A00792C7D0E020C731218A178327421
:1007C600FFF2E408F208F208F208F2087403F27B7A
:1007D600FE7A00792C7D0C1218DB7838EFF27BFE5E
:1007E6007A00792C7D0E020C737817E224FE603CA9
:1007F600147003020897240260030208FC1218A171
:10080600783274FFF2E408F208F208F208F208748B
:1008160003F27BFE7A00792C7D0C1218DB7838EF18
:10082600F27BFE7A00792C7D0E020C737818E26456
:1008360001702D7B0A7D017F64121671E47837F210
:10084600FD7F051218A57BFE7A00792C7D0C121807
:10085600DB7838EFF27BFE7A00792C7D0E020C7382
:100866007818E264026003020C76121A07E47837FD
:10087600F2FD7F051218A57BFE7A00792C7D0C12FD
:1008860018DB7838EFF27BFE7A00792C7D0E020CAD
:10089600737818E26401702D7B0A7D017F1E1216A3
:1008A600C7E47837F2FD7F051218A57BFE7A00793A
:1008B6002C7D0C1218DB7838EFF27BFE7A00792C4F
:1008C6007D0E020C737818E264026003020C761245
:1008D6001A85E47837F2FD7F051218A57BFE7A00AB
:1008E600792C7D0C1218DB7838EFF27BFE7A0079D2
:1008F6002C7D0E020C731218A1783274FFF2E408F4
:10090600F208F208F208F2087403F27BFE7A007924
:100916002C7D0C1218DB7838EFF27BFE7A00792CEE
:100926007D0E020C737817E270657818E264017028
:100936002AD2CB783730CB03F280037401F2121837
:10094600A17BFE7A00792C7D0C1218DB7838EFF249
:100956007BFE7A00792C7D0E020C737818E2640215
:100966006003020C76C2CB783720CB03F280037487
:1009760001F21218A17BFE7A00792C7D0C1218DB8D
:100986007838EFF27BFE7A00792C7D0E020C73121A
:1009960018A1783274FFF2E408F208F208F208F2BD
:1009A600087403F27BFE7A00792C7D0C1218DB7832
:1009B60038EFF27BFE7A00792C7D0E020C7312184A
:1009C600A1783274FFF2E408F208F208F208F2089D
:1009D6007403F27BFE7A00792C7D0C1218DB7838D2
:1009E600EFF27BFE7A00792C7D0E020C731218A1B1
:1009F600783274FFF2E408F208F208F208F208749A
:100A060003F27BFE7A00792C7D0C1218DB7838EF26
:100A1600F27BFE7A00792C7D0E020C737816E26466
:100A2600016003020C7608E224FE604224FD607534
:100A360024026003020AE87818E2B4010578027419
:100A460001F27818E2B4020578027402F21218A1D3
:100A5600E47837F27BFE7A00792C7D0C1218DB786D
:100A660038EFF27BFE7A00792C7D0E020C73781833
:100A7600E2B4010578057401F27818E2B40205784B
:100A8600057402F21218A1E47837F27BFE7A007937
:100A96002C7D0C1218DB7838EFF27BFE7A00792C6D
:100AA6007D0E020C737818E2B40108780E7401F218
:100AB6007803F27818E2B40208780E7402F278032A
:100AC600F21218A1E47837F27BFE7A00792C7D0CBD
:100AD6001218DB7838EFF27BFE7A00792C7D0E0255
:100AE6000C731218A1783274FFF2E408F208F208C7
:100AF600F208F2087403F27BFE7A00792C7D0C1260
:100B060018DB7838EFF27BFE7A00792C7D0E020C2A
:100B1600731218A1783274FFF2E408F208F208F2B0
:100B260008F2087403F27BFE7A00792C7D0C121809
:100B3600DB7838EFF27BFE7A00792C7D0E020C739F
:100B46001218A1783274FFF2E408F208F208F208EB
:100B5600F2087403F27BFE7A00792C7D0C1218DB06
:100B66007838EFF27BFE7A00792C7D0E020C731238
:100B760018A1783274FFF2E408F208F208F208F2DB
:100B8600087403F27BFE7A00792C7D0C1218DB7850
:100B960038EFF27BFE7A00792C7D0E020C73121868
:100BA600A1783274FFF2E408F208F208F208F208BB
:100BB6007403F27BFE7A00792C7D0C1218DB7838F0
:100BC600EFF27BFE7A00792C7D0E020C731218A1CF
:100BD600783274FFF2E408F208F208F208F20874B8
:100BE60003F27BFE7A00792C7D0C1218DB7838EF45
:100BF600F27BFE7A00792C7D0E80721218A1783273
:100C060074FFF2E408F208F208F208F2087402F23D
:100C16007BFE7A00792C7D0C1218DB7838EFF27B9C
:100C2600FE7A00792C7D0E80441218A1783274FF6A
:100C3600F2E408F208F208F208F2780FE26455606E
:100C46000578377401F2784AE2240EF8E2640D6002
:100C56000578377408F27BFE7A00792C7D0C121821
:100C6600DB7838EFF27BFE7A00792C7D0E12190CB8
:070C7600E4784AF2781DF258
:010C7D002254
:1015690082A1000082A303E682A5000082A70000F1
:0415790082A9000043
:0E1ACB005389FC758CEEE4F58AD2A9D28C22E8
:03000B00020C7E66
:100C7E00C0E0C0F0C083C082C0D075D000C000C03C
:0D0C8E0001C002C003C004C005C006C007BD
:100C9B0078A6E22401F218E23400F278A2E22401F1
:100CAB00F218E23400F278A4E22401F218E23400E4
:100CBB00F218E264C8700218E2700778A1F208F229
:100CCB00B2B278A4E2B4E80C18E2B40307E4F20879
:100CDB00F2121A387869E264017049786BE2701F7E
:100CEB007860E27854F2121B607860EFF27854E28D
:100CFB00B4010C7860E27007121A857869E4F27817
:100D0B006BE2B4011F7861E27855F2121B697861CE
:100D1B00EFF27855E2B4010C7861E27007121A8594
:100D2B007869E4F278A6E26402700218E2600302CA
:100D3B000E8178A5F208F2785CE27851F2121B452D
:100D4B00785CEFF27851E2B40109785CE2700478D8
:100D5B008404F2785DE27852F2121B4E785DEFF26A
:100D6B007852E2700B785DE2B4010578857401F27C
:100D7B00785FE27853F2121B57785FEFF27853E209
:100D8B00FFB40110785FE2700B785704F27886E4B9
:100D9B00F27894F2EF701B785FE2B4011578567419
:100DAB0001F27886E4F27857F278A9F208F2789497
:100DBB0004F27898E2640170317862E27858F212AA
:100DCB001B727862EFF27858E2FFB401097862E2A5
:100DDB007004785A04F2785AE2B4010EEF700B7873
:100DEB0062E2B4010578837401F27883E2B40121E5
:100DFB007893E204F27875E4F208F2786CF2789367
:100E0B00E2B4C80DE4F27883F2788704F2785AE4FE
:100E1B00F2785BE2B401317863E27859F2121B7B12
:100E2B007863EFF27859E26F601E789FE22401F24B
:100E3B0018E23400F208E2641E700218E2700978BE
:100E4B009EF208F2788A04F27876E2640170021856
:100E5B00E270237889E22401F218E23400F2C3082D
:100E6B00E2940818E29407400DE4F208F27875F268
:100E7B0008F2786C04F2785FE2701D78AAE2240124
:100E8B00F218E23400F208E2B4700D18E2B417085D
:100E9B00E4F208F2789404F27871E2FC08E2FD08BF
:100EAB00E2FE08E22401FFE43EFEE43DFDE43CFCEF
:100EBB0078711212C27877E2FC08E2FD08E2FE08B4
:100ECB00E22401FFE43EFEE43DFDE43CFC787712B6
:100EDB0012C2788BE275F0C8A4FFAEF0E4FCFD788B
:100EEB0071E2FB08E2F908E2FA08E2CBF8C312124E
:100EFB00B140137896E4F2788BF278711212CE002F
:100F0B00000000121A07788DE275F0C8A4FFAEF04E
:100F1B00E4FCFD7877E2FB08E2F908E2FA08E2CBA1
:100F2B00F8C31212B140137897E4F2788DF2787708
:100F3B001212CE00000000121A857892E2B4012141
:100F4B0078A8E22401F218E23400F208E2B4581156
:100F5B0018E2B4020CE4F208F2787B04F27892E423
:100F6B00F2789CE2B4014C788EE2FC08E2FD08E2D8
:100F7B00FE08E22401FFE43EFEE43DFDE43CFC7888
:100F8B008E1212C2E47F407E06FDFC788EE2FB08D7
:100F9B00E2F908E2FA08E2CBF8C31212B140147876
:100FAB008E1212CE00000000788C7401F2D2C3783E
:100FBB009CE4F2780BE26401700218E2703D780653
:100FCB00E2FC08E2FD08E2FE08E22401FFE43EFE3B
:100FDB00E43DFDE43CFC78061212C27F407E0D7DA1
:100FEB00037C007806E2FB08E2F908E2FA08E2CBA0
:100FFB00F8C31212B14004780DE4F2789BE2B4010D
:10100B00457865E2FC08E2FD08E2FE08E22401FFF8
:10101B00E43EFEE43DFDE43CFC78651212C2E47F45
:10102B00407E06FDFC7865E2FB08E2F908E2FA086F
:10103B00E2CBF8C31212B1700D78651212CE00001C
:06104B000000789BE4F2B6
:10105100D007D006D005D004D003D002D001D000F3
:0B106100D0D0D082D083D0F0D0E0329D
:101AAD00438E0475D7AE75D6FB43AF04438E10221B
:0300630002000395
:0100030032CA
:10158A00021362E493A3F8E493A34003F68001F202
:10159A0008DFF48029E493A3F85407240CC8C33362
:1015AA00C4540F4420C8834004F456800146F6DF31
:1015BA00E4800B0102040810204080901481E47E2C
:1015CA00019360BCA3FF543F30E509541FFEE49326
:1015DA00A360010ECF54C025E060A840B8E493A3ED
:1015EA00FAE493A3F8E493A3C8C582C8CAC583CA18
:1015FA00F0A3C8C582C8CAC583CADFE9DEE780BED0
:01157D00006D
:10121600BB010689828A83E0225002E722BBFE02D6
:09122600E32289828A83E4932209
:10122F00BB010CE58229F582E5833AF583E0225074
:10123F0006E92582F8E622BBFE06E92582F8E222BE
:0D124F00E58229F582E5833AF583E49322D8
:10125C00C2D5EC30E709B2D5E4C39DFDE49CFCEEAD
:10126C0030E715B2D5E4C39FFFE49EFE12130DC305
:10127C00E49DFDE49CFC800312130D30D507C3E400
:06128C009FFFE49EFE221C
:10129200BB010A89828A83F0E5F0A3F0225006F7A7
:0F12A20009A7F01922BBFE06F3E5F009F31922A4
:1012B100EB9FF5F0EA9E42F0E99D42F0E89C45F093
:0112C100220A
:0C12C200ECF208EDF208EEF208EFF22268
:1012CE00D083D082E493F208740193F208740293EF
:0912DE00F208740393F274047326
:1012E700D083D082F8E4937012740193700DA3A396
:1012F70093F8740193F5828883E4737402936860AA
:06130700EFA3A3A380DFA9
:10130D00BC000BBE0029EF8DF084FFADF022E4CCC4
:10131D00F875F008EF2FFFEE33FEEC33FCEE9DEC8D
:10132D00984005FCEE9DFE0FD5F0E9E4CEFD22EDD3
:10133D00F8F5F0EE8420D21CFEADF075F008EF2F1D
:10134D00FFED33FD4007985006D5F0F222C398FD0E
:05135D000FD5F0EA22AB
:00000001FF
