:030000000210C229
:0C10C200787FE4F6D8FD75810702110963
:1014170075B812E4F594F593F5927591C075960E2B
:10142700F59575B2E0F5B175B40CF5B375CA02F56B
:0A143700C9C2B7C2A1C2A3C2A2221B
:100E390012141712150712157F121561121030C2FC
:100E4900B6C2C3C2C2D2C9D2B57F107E277D007C8B
:100E5900001211FA7F107E277D007C001211FAD250
:100E6900C2D2C3C2C9D2AF75C10643C1201200663E
:100E7900E4FF1215207B0A7D017F6412114E7F1059
:100E89007E277D007C001211FA43C1101200667F93
:100E9900107E277D007C001211FA43C110120066F2
:100EA9007F107E277D007C001211FA43C1101200C9
:100EB900667F107E277D007C001211FA43C1101253
:100EC90000667F107E277D007C001211FA43C11055
:100ED9001200667F107E277D007C001211FA43C143
:100EE900101200667F107E277D007C001211FA43E4
:100EF900C1101200667F107E277D007C001211FA56
:100F090043C1101200667F107E277D007C001211FC
:100F1900FA43C1101200667F107E277D007C001203
:100F290011FA43C1101200667F01121520E478926C
:100F3900F243C11012006643C110120B3D43C110A8
:080F49001214D112000E80E920
:100F510081010081020081000081090082070001F6
:090F6100810A0184030000000074
:09158D002085037F00227F01226A
:091596002086037F00227F012260
:09159F002087037F00227F012256
:0915A8002090037F00227F012244
:0915B1002091037F00227F01223A
:0915BA0020B4037F00227F01220E
:0915C30020C7037F00227F0122F2
:0915CC002092037F00227F01221E
:0915D5002093037F00227F012214
:0915DE002094037F00227F01220A
:0915E7002095037F00227F012200
:0915F00020B3037F00227F0122D9
:0915F90020CA037F00227F0122B9
:091602002084037F00227F0122F5
:09160B002083037F00227F0122ED
:091614002082037F00227F0122E5
:09161D002081037F00227F0122DD
:091626002080037F00227F0122D5
:09162F0020C6037F00227F012286
:0916380020C5037F00227F01227E
:1014D10043C110D3784CE2943C18E264809480407C
:0B14E10002D2C27848E27002D2C222A0
:10000E0043C110780AE27002D2B6780AE2B4010255
:03001E00C2B62245
:060F6A008119018146001F
:101507005389CF438E40758DFE758BE0D28E538EF7
:09151700FE759850D2BCD2AC2242
:03002300020026B2
:10002600C0E0C0D075D000C000309827C29878468E
:10003600E2D3940D4004E4F2800E7846E2240BF8F5
:10004600E599F27846E204F27846E2B40D057819AD
:0A0056007401F2D000D0D0D0E032E7
:0A13E900789DEBF208EAF208E9F241
:1013F300E4FFEFC39D501C789DE2FB08E2FA08E28C
:10140300F98F82758300120D06F5993099FDC29903
:031413000F80DF68
:0114160022B3
:081641007F037E03DEFEDFFAE9
:01164900227E
:08164A007F077E02DEFEDFFADD
:011652002275
:1011FA008041E4FFFEFDFC789DE2FB08E2F908E28B
:0B120A00FA08E2CBF8D3120D88402F49
:0D1215000078A17445F278A1E214F270F99E
:10122200789DE2FC08E2FD08E2FE08E224FFFFEE00
:1012320034FFFEED34FFFDEC34FFFC789D120D9976
:0212420080B872
:011244002287
:0D157100EFD3940040077E34DEFE1F80F3B0
:01157E00224A
:10144100E4FDD2A6121641C2A67F30121571D2A6B2
:101451007F06121571A2A6E433FD7F18121571EDF6
:0814610070047F0180027F008E
:011469002260
:10148E00E4FC7D08C2A6121641ECC313FCD2A612D0
:10149E00164A30A6034480FC7F05121571DDE5AFB8
:0114AE000439
:0114AF00221A
:02146A00AD07CC
:10146C007C08C2A6121641ED30E004D2A68002C25E
:10147C00A67F06121571D2A6EDC313FD121641DC20
:01148C00E17E
:01148D00223C
:0A12450078A2EBF208EAF208E9F2E1
:10124F0012144108EFF27FCC12146A7FBE12146A97
:10125F0012148EAB0712148EEFFEEBFF7C007D1085
:10126F00120D3378A2E2FB08E2FA08E2F9EE8FF0F2
:06127F00120D6908E2FFF8
:011285002246
:10154F00121441AB077FCC12146A7F4412146AAF96
:01155F000388
:011560002268
:1014EC0012154F7BFE7A00794B1212457848EFF2B9
:0A14FC00E2700774FF784BF208F26B
:0115060022C2
:100F7000818D00818F00817100817F01816F0081EF
:100F80007000817401817501817201817301818911
:100F900000818A00817E00818000818C00816E004A
:100FA000818500818800846400000000846A00005C
:100FB0000000816000816203848100000000818E56
:100FC00000817700814D01817800814E0081790098
:100FD000815300815200814F008187008150008140
:100FE0005100818B00817A00815600815D0081541F
:100FF00000817600818600817D00816300815E0032
:1010000081550082900000815700827B0000826839
:0810100000008161FF815F0017
:0B14B0007868F208F27863F2787AF2B4
:1014BB00E47889F2787EF2C2B7C2A1FFFE121286DF
:0614CB00E4FFFE0212C462
:1010300053943F53933F53803F5396F15395F1534D
:10104000A0F153B27F53B17F53B07F43BA8090FF7A
:10105000F2E4F090FFF0F0A37464F090FF00E4F08D
:10106000A304F0A3E4F0A3F0A3F090FF10F0A30416
:10107000F0A3E4F0A3F0A3F090FF20F0A304F0A30A
:10108000E4F0A3F0A3F090FF30F0A304F0A3E4F0A9
:10109000A3F0A3F090FF40F0A304F0A3E4F0A3F0CA
:1010A000A37408F090FF50E4F0A304F0A3E4F0A3CD
:1010B000F0A37408F0E4F5F175F53F43F58053BAF9
:0210C0007F228D
:101286008F828E83E5824583700653F5FEC2B722B0
:10129600AF82AE83E4FCFD7B64FAF9F8C3120D88D5
:1012A600700653F5FED2B72243BA80AE83AF829062
:0E12B600FF00EEF0A3EFF053BA7F43F50122E4
:1012C4008F828E83E5824583700653F5FDC2A12289
:1012D400AF82AE83E4FCFD7B64FAF9F8C3120D8897
:1012E400700653F5FDD2A12243BA80AE83AF82903B
:0E12F400FF10EEF0A3EFF053BA7F43F5022295
:101302008F828E83E5824583700653F5FBC2A2224B
:10131200AF82AE83E4FCFD7B64FAF9F8C3120D8858
:10132200700653F5FBD2A22243BA80AE83AF8290FD
:0E133200FF20EEF0A3EFF053BA7F43F5042244
:101340008F828E83E5824583700653F5F7C2A32210
:10135000AF82AE83E4FCFD7B64FAF9F8C3120D881A
:10136000700653F5F7D2A32243BA80AE83AF8290C2
:0E137000FF30EEF0A3EFF053BA7F43F50822F2
:10153900E4788AF27880F2C2A3C2A2FFFE121302F3
:06154900E4FFFE02134066
:10114E00789FEFF278897401F2787EEBF2789FE265
:10115E00FF7874F27872EDF2E2B40119EFB464061E
:10116E007F647E0080067874E2FF7E00121286E4B1
:10117E00FFFE1212C47872E2701B789FE2B464060E
:10118E007F647E0080067874E2FF7E001212C4E453
:06119E00FFFE1212862282
:1011A40078A0EFF2788A7401F27880EBF278A0E20A
:1011B400FF7875F27873EDF2E2B40119EFB46406C6
:1011C4007F647E0080067875E2FF7E00121340E49F
:1011D400FFFE1213027873E2701B78A0E2B4640677
:1011E4007F647E0080067875E2FF7E00121302E4BD
:0611F400FFFE1213402271
:10152000789FEFF27B0A7D017F1E1211A478607410
:0915300001F2789FE27862F222D8
:100B3D0043C1101215F9789DEFF2121602789EEF4F
:100B4D00F212160B785AEFF2789DE26401600302FF
:100B5D000CB808E26003020CB87878E26401600317
:100B6D00020CB818E264016003020CB812160B787F
:100B7D005AEFF26011788DE26401600A788FE264B9
:100B8D00016003020CB8788DE27014787F7402F264
:100B9D00788B14F2788DF27885F2E4FF12152078B7
:100BAD007DE2B4010F1214BBE47857F27890F2088D
:100BBD00F2787DF2788FE27023786EE2B4011D78C1
:100BCD007F7402F2788F14F2E47885F27B0F7D0149
:100BDD007F6412114E7868E4F20804F2787AE264C8
:100BED000170411214B07F01121520E4787FF27864
:100BFD0081120DA500000000788E7401F2E4785F7B
:100C0D00F2786EF27878F218F2788DF2788FF278B9
:100C1D008BF27863F2787BF208F27868F208F2785A
:100C2D0087F2D2C27863E264017033F2785FE2FF3B
:100C3D00B4011BE4786EF27868F208F27863F2780A
:100C4D0088F2787BF208F2787F7403F2D2C2EF70EB
:100C5D000D785F04F2E4FF121520E4788FF2787FAF
:100C6D00E264037046785AE26401703F1214B07F5B
:100C7D0001121520787F7401F27881120DA5000004
:100C8D000000788E7401F2E4785FF2786EF2787875
:100C9D00F218F2788DF2788FF2788BF27863F27821
:100CAD007BF208F27868F208F2D2C3785AE2702F1C
:100CBD007878E2702A18E270267887E27017789DAE
:100CCD00E2B4010D08E270097B017D017F3C121138
:0F0CDD004EC2C3C2C27887E2B40104D2C3D2C2EE
:010CEC0022E5
:03101800819201C1
:0A13B800789DEBF208EAF208E9F272
:1013C200E4FEFCAF05EFD394004019789DE2FB08E0
:1013D20008E2F92401F218E2FA3400F2120CED2EBE
:0613E200FE1F80E1AF06D2
:0113E80022E2
:04137E00E4FD7F0506
:1013820078287455F208EFF208EDF2E408F208F258
:101392000874FEF27811E2782EF2E4FE74122EF84E
:1013A200E2FC742F2EF8ECF20EEEB404EFEF2D24D3
:0513B20030F8740DF29B
:0113B7002213
:1000660043C1107819E264016003020799780BE234
:100076006455600302074B7810E2F4600302074BF5
:100086007846E2240AF8E2640D600302074B7BFE21
:100096007A00790B7846E224FEFD1213B87846E220
:1000A6002409F8E26F600302071D7811E214700359
:1000B60002015A14700302045B24FE604A240424DD
:1000C600FA4003020792146072240B24FC400302D8
:1000D600079224FA60030206EF7814E224FE600E0B
:1000E6000460030207927807E4F208048005E478C6
:1000F60007F208F27803120DA500000000780A74D2
:1001060001F212137E80497812E26402600302074C
:1001160092FD7F05121382E47833F27BFE7A007932
:10012600287D0C1213B87834EFF27BFE7A0079281A
:100136007D0E1213E975C7200207927812E2640158
:100146006003020792FD7F05121382787F7401F225
:10015600E40203877812E2120DBE017F0101AE02AE
:1001660001EA0302C10403460803810903A40B0341
:10017600CF0E04380F00000792E4FD7F08121382A9
:10018600E47833F2087403F2087410F208F27BFE86
:100196007A0079287D0F1213B87837EFF27BFE7A52
:1001A6000079287D1102078F7813E224FE6003028E
:1001B6000792E4FD7F0612138278337401F208F287
:1001C600121638BF0104E47834F27BFE7A007928EF
:1001D6007D0D1213B87835EFF27BFE7A0079287D13
:1001E6000F02078F7813E224FE606B146003020788
:1001F60092E4FD7F0612138278337405F2E408F266
:100206001215B1BF01067834E24410F21215A8BFE8
:1002160001067834E24408F212159FBF01067834CD
:10022600E24404F2121596BF01067834E24402F263
:1002360012158DBF01067834E24401F27BFE7A0086
:1002460079287D0D1213B87835EFF27BFE7A0079A6
:10025600287D0F02078FE4FD7F0612138278337420
:1002660005F2E408F21215E7BF01067834E24410FD
:10027600F21215DEBF01067834E24408F21215D5F3
:10028600BF01067834E24404F21215CCBF010678A9
:1002960034E24402F21215C3BF01067834E2440187
:1002A600F27BFE7A0079287D0D1213B87835EFF2CD
:1002B6007BFE7A0079287D0F02078F7813E224FEF1
:1002C6006003020792E4FD7F0612138278337407F7
:1002D600F2E408F21215F9BF01067834E24401F29D
:1002E600121602BF01067834E24402F212160BBF60
:1002F60001067834E24404F2121614BF010678347B
:10030600E24408F212161DBF01067834E24410F2E8
:10031600121626BF01067834E24420F212162FBFC9
:1003260001047834E2F27BFE7A0079287D0D1213FF
:10033600B87835EFF27BFE7A0079287D0F02078FB9
:100346007813E224FE6003020792E4FD7F0612138F
:1003560082784BE208E27833F2784BE2FF7834EFAA
:10036600F27BFE7A0079287D0D1213B87835EFF20C
:100376007BFE7A0079287D0F02078F12137E789212
:10038600E27833F27BFE7A0079287D0C1213B87876
:1003960034EFF27BFE7A0079287D0E02078F121366
:1003A6007E20C20778337401F28004E47833F27B4E
:1003B600FE7A0079287D0C1213B87834EFF27BFEB2
:1003C6007A0079287D0E02078F7813E224FD6034C7
:1003D60004600302079212137E1215F0BF0106E4B1
:1003E6007833F2800578337401F27BFE7A0079283F
:1003F6007D0C1213B87834EFF27BFE7A0079287DF3
:100406000E02078F12137E1215BABF0106E4783367
:10041600F2800578337401F27BFE7A0079287D0C30
:100426001213B87834EFF27BFE7A0079287D0E023B
:10043600078F12137E787FE27833F27BFE7A00799B
:10044600287D0C1213B87834EFF27BFE7A007928F7
:100456007D0E02078F7812E214700302054624FA15
:10046600607924FB700302061A14700302068224C4
:100476000A60030207927814E26401702AC2C27805
:100486003320C203F280037401F212137E7BFE7ADC
:100496000079287D0C1213B87834EFF27BFE7A00CF
:1004A60079287D0E02078F7814E264026003020742
:1004B60092D2C2783330C203F280037401F212136F
:1004C6007E7BFE7A0079287D0C1213B87834EFF221
:1004D6007BFE7A0079287D0E02078F7814E264018C
:1004E600702AC2C3783320C303F280037401F21268
:1004F600137E7BFE7A0079287D0C1213B87834EFD0
:10050600F27BFE7A0079287D0E02078F7814E2646A
:10051600026003020792D2C3783330C303F280032A
:100526007401F212137E7BFE7A0079287D0C121379
:10053600B87834EFF27BFE7A0079287D0E02078FB9
:100546007813E224FE60680460030207927814E2DE
:100556006401702AD2B5783330B503F28003740192
:10056600F212137E7BFE7A0079287D0C1213B8787E
:1005760034EFF27BFE7A0079287D0E02078F78141D
:10058600E26402702AC2B5783320B503F2800374A0
:1005960001F212137E7BFE7A0079287D0C1213B8C5
:1005A6007834EFF27BFE7A0079287D0E02078F7889
:1005B60014E26401702AD2C9783330C903F2800389
:1005C6007401F212137E7BFE7A0079287D0C1213D9
:1005D600B87834EFF27BFE7A0079287D0E02078F19
:1005E6007814E264026003020792C2C9783320C914
:1005F60003F280037401F212137E7BFE7A007928DF
:100606007D0C1213B87834EFF27BFE7A0079287DE0
:100616000E02078F7813E224FD602104705E7814C1
:10062600E26401700B7B0A7D017F6412114E802803
:100636007814E2640270051214BB801C7814E2641C
:1006460001700B7B0A7D017F1E1211A4800A7814AB
:10065600E264027027121539E47833F2FD7F051241
:1006660013827BFE7A0079287D0C1213B87834EF5A
:10067600F27BFE7A0079287D0E1213E97813E26088
:10068600030207927814E26401702AC2CB78332001
:10069600CB03F280037401F212137E7BFE7A00799B
:1006A600287D0C1213B87834EFF27BFE7A00792895
:1006B6007D0E02078F7814E264026003020792D26D
:1006C600CB783330CB03F280037401F212137E7BB6
:1006D600FE7A0079287D0C1213B87834EFF27BFE8F
:1006E6007A0079287D0E02078F12137E782E74FF0A
:1006F600F2E408F208F208F208F2087403F27BFE4C
:100706007A0079287D0C1213B87834EFF27BFE7AE2
:100716000079287D0E807212137E782E74FFF2E423
:1007260008F208F208F208F2087402F27BFE7A0078
:1007360079287D0C1213B87834EFF27BFE7A0079B3
:10074600287D0E804412137E782E74FFF2E408F2A0
:1007560008F208F208F2780BE26455600578337403
:1007660001F27846E2240AF8E2640D6005783374F3
:1007760008F27BFE7A0079287D0C1213B87834EFE4
:10078600F27BFE7A0079287D0E1213E9E47846F2B0
:030796007819F2DD
:01079900223D
:10101B0082930000829503E682970000829900007C
:04102B00829B0000A4
:0E157F005389FC758CEEE4F58AD2A9D28C2239
:03000B0002079A4F
:10079A00C0E0C0F0C083C082C0D075D000C000C025
:0D07AA0001C002C003C004C005C006C007A6
:1007B7007898E22401F218E23400F27894E22401F6
:1007C700F218E23400F27896E22401F218E23400DB
:1007D700F218E264C8700218E270077893F208F220
:1007E700B2B27896E2B4E80C18E2B40307E4F20870
:1007F700F21214EC7860E2640170497862E2701FCB
:10080700785BE27850F2121614785BEFF27850E2D8
:10081700B4010C785BE270071215397860E4F2785E
:1008270062E2B4011F785CE27851F212161D785C1F
:10083700EFF27851E2B4010C785CE27007121539D7
:100847007860E4F27898E26402700218E2600302CA
:10085700099D7897F208F27858E2784DF21215F967
:100867007858EFF2784DE2B401097858E2700478CD
:100877007704F27859E2784EF21216027859EFF2BD
:10088700784EE2700B7859E2B4010578787401F27A
:10089700785AE2784FF212160B785AEFF2784FE255
:1008A700FFB40110785AE2700B785304F27879E4B8
:1008B700F27887F2EF701B785AE2B4011578527418
:1008C70001F27879E4F27853F2789BF208F27887AC
:1008D70004F2788BE264017031785DE27854F212A9
:1008E7001626785DEFF27854E2FFB40109785DE2ED
:1008F7007004785604F27856E2B4010EEF700B7864
:100907005DE2B4010578767401F27876E2B40121EC
:100917007886E204F27868E4F208F27863F278867F
:10092700E2B4C80DE4F27876F2787A04F27856E405
:10093700F27857E2B40131785EE27855F212162F59
:10094700785EEFF27855E26F601E7891E22401F24B
:1009570018E23400F208E2641E700218E2700978A7
:1009670090F208F2787D04F27869E2640170021867
:10097700E27023787CE22401F218E23400F2C30823
:10098700E2940818E29407400DE4F208F27868F25E
:1009970008F2786304F2785AE2701D789CE2240129
:1009A700F218E23400F208E2B4700D18E2B4170846
:1009B700E4F208F2788704F27864E2FC08E2FD08C2
:1009C700E2FE08E22401FFE43EFEE43DFDE43CFCD8
:1009D7007864120D99786AE2FC08E2FD08E2FE08E5
:1009E700E22401FFE43EFEE43DFDE43CFC786A12AC
:1009F7000D99787EE275F0C8A4FFAEF0E4FCFD78AF
:100A070064E2FB08E2F908E2FA08E2CBF8C3120D48
:100A17008840137889E4F2787EF27864120DA50095
:100A27000000001214BB7880E275F0C8A4FFAEF096
:100A3700E4FCFD786AE2FB08E2F908E2FA08E2CB97
:100A4700F8C3120D884013788AE4F27880F2786A46
:100A5700120DA5000000001215397885E2B40121B6
:100A6700789AE22401F218E23400F208E2B458114D
:100A770018E2B4020CE4F208F2786E04F27885E426
:100A8700F2788EE2B4014C7881E2FC08E2FD08E2DC
:100A9700FE08E22401FFE43EFEE43DFDE43CFC7871
:100AA70081120D99E47F407E06FDFC7881E2FB0808
:100AB700E2F908E2FA08E2CBF8C3120D884014788D
:100AC70081120DA500000000787F7401F2D2C3786F
:100AD7008EE4F27808E26401700218E2703D780350
:100AE700E2FC08E2FD08E2FE08E22401FFE43EFE24
:100AF700E43DFDE43CFC7803120D997F407E0D7DBB
:100B0700037C007803E2FB08E2F908E2FA08E2CB8B
:0B0B1700F8C3120D884004780AE4F2D5
:100B2200D007D006D005D004D003D002D001D00027
:0B0B3200D0D0D082D083D0F0D0E032D1
:10156100438E0475D7AE75D6FB43AF04438E10226C
:0300630002000395
:0100030032CA
:1010CE00020E39E493A3F8E493A34003F68001F2F1
:1010DE0008DFF48029E493A3F85407240CC8C33323
:1010EE00C4540F4420C8834004F456800146F6DFF2
:1010FE00E4800B0102040810204080900F51E47E22
:10110E00019360BCA3FF543F30E509541FFEE493E6
:10111E00A360010ECF54C025E060A840B8E493A3AD
:10112E00FAE493A3F8E493A3C8C582C8CAC583CAD8
:10113E00F0A3C8C582C8CAC583CADFE9DEE780BE90
:01102F0000C0
:100CED00BB010689828A83E0225002E722BBFE0205
:090CFD00E32289828A83E4932238
:100D0600BB010CE58229F582E5833AF583E02250A2
:100D160006E92582F8E622BBFE06E92582F8E222EC
:0D0D2600E58229F582E5833AF583E4932206
:100D3300C2D5EC30E709B2D5E4C39DFDE49CFCEEDB
:100D430030E715B2D5E4C39FFFE49EFE120DE4C362
:100D5300E49DFDE49CFC8003120DE430D507C3E45D
:060D63009FFFE49EFE224A
:100D6900BB010A89828A83F0E5F0A3F0225006F7D5
:0F0D790009A7F01922BBFE06F3E5F009F31922D2
:100D8800EB9FF5F0EA9E42F0E99D42F0E89C45F0C1
:010D98002238
:0C0D9900ECF208EDF208EEF208EFF22296
:100DA500D083D082E493F208740193F2087402931D
:090DB500F208740393F274047354
:100DBE00D083D082F8E4937012740193700DA3A3C4
:100DCE0093F8740193F5828883E4737402936860D8
:060DDE00EFA3A3A380DFD8
:100DE400BC000BBE0029EF8DF084FFADF022E4CCF3
:100DF400F875F008EF2FFFEE33FEEC33FCEE9DECBC
:100E0400984005FCEE9DFE0FD5F0E9E4CEFD22ED01
:100E1400F8F5F0EE8420D21CFEADF075F008EF2F4B
:100E2400FFED33FD4007985006D5F0F222C398FD3C
:050E34000FD5F0EA22D9
:00000001FF
