:03000000020FFAF2
:0C0FFA00787FE4F6D8FD758107021041F5
:1013610075B812E4F594F593F5927591C075960EE2
:10137100F59575B2E0F5B175B40CF5B375CA02F522
:0A138100C9C2B7C2A1C2A3C2A222D2
:100D78001213611214511214C91214AB120F68C263
:100D8800B6C2C3C2C2D2C9D2B57F107E277D007C4D
:100D98000012117E7F107E277D007C0012117ED20A
:100DA800C2D2C3C2C9D2AF75C10643C12012006600
:100DB800E4FF12146A7B0A7D017F641210867F109B
:100DC8007E277D007C0012117E43C1101200667FD1
:100DD800107E277D007C0012117E43C11012006630
:100DE8007F107E277D007C0012117E43C110120007
:100DF800667F107E277D007C0012117E43C1101291
:100E080000667F107E277D007C0012117E43C11092
:100E18001200667F107E277D007C0012117E43C180
:100E2800101200667F107E277D007C0012117E4321
:100E3800C1101200667F107E277D007C0012117E93
:100E480043C1101200667F107E277D007C001211BE
:100E58007E43C1101200667F107E277D007C001241
:100E6800117E43C1101200667F0112146AE4788370
:100E7800F243C11012006643C110120A8E43C1101A
:080E880012141B12000E80E998
:100E900081010081020081000081090082070001B8
:090EA000810A0184030000000036
:0914D7002085037F00227F012221
:0914E0002086037F00227F012217
:0914E9002087037F00227F01220D
:0914F2002090037F00227F0122FB
:0914FB002091037F00227F0122F1
:0915040020B4037F00227F0122C4
:09150D0020C7037F00227F0122A8
:091516002092037F00227F0122D4
:09151F002093037F00227F0122CA
:091528002094037F00227F0122C0
:091531002095037F00227F0122B6
:09153A0020B3037F00227F01228F
:0915430020CA037F00227F01226F
:09154C002084037F00227F0122AC
:091555002083037F00227F0122A4
:09155E002082037F00227F01229C
:091567002081037F00227F012294
:091570002080037F00227F01228C
:0915790020C6037F00227F01223D
:0915820020C5037F00227F012235
:10141B0043C110D3783EE2943C18E2648094804040
:0B142B0002D2C2783AE27002D2C22264
:10000E0043C110780AE27002D2B6780AE2B4010255
:03001E00C2B62245
:060EA900811901813800EF
:101451005389CF438E40758DFE758BE0D28E538EAE
:09146100FE759850D2BCD2AC22F9
:0300230002113295
:10113200C0E0C0D075D000C000309839C29878386D
:10114200E2D3940E4004E4F2800E7838E2240BF8E5
:10115200E599F27838E204F27838E2D39407401540
:10116200780BE2B4550F7838E2240AF8E2B40D05A0
:0C11720078197401F2D000D0D0D0E03227
:0A133300788CEBF208EAF208E9F208
:10133D00E4FFEFC39D501C788CE2FB08E2FA08E253
:10134D00F98F82758300120C45F5993099FDC2997C
:03135D000F80DF1F
:01136000226A
:08158B007F037E03DEFEDFFAA0
:011593002235
:081594007F077E02DEFEDFFA94
:01159C00222C
:10117E008041E4FFFEFDFC788CE2FB08E2F908E218
:0B118E00FA08E2CBF8D3120CC7402F88
:0D1199000078907445F27890E214F270F93D
:1011A600788CE2FC08E2FD08E2FE08E224FFFFEE8E
:1011B60034FFFEED34FFFDEC34FFFC788C120CD8C6
:0211C60080B8EF
:0111C8002204
:0D14BB00EFD3940040077E34DEFE1F80F367
:0114C8002201
:10138B00E4FDD2A612158BC2A67F301214BBD2A6D7
:10139B007F061214BBA2A6E433FD7F181214BBED1B
:0813AB0070047F0180027F0045
:0113B3002217
:1013D800E4FC7D08C2A612158BECC313FCD2A6123E
:1013E800159430A6034480FC7F051214BBDDE5AFDD
:0113F80004F0
:0113F90022D1
:0213B400AD0783
:1013B6007C08C2A612158BED30E004D2A68002C2CC
:1013C600A67F061214BBD2A6EDC313FD12158BDC45
:0113D600E135
:0113D70022F3
:0A11C9007891EBF208EAF208E9F26F
:1011D30012138B08EFF27FCC1213B47FBE1213B439
:1011E3001213D8AB071213D8EFFEEBFF7C007D1070
:1011F300120C727891E2FB08E2FA08E2F9EE8FF042
:06120300120CA808E2FF36
:0112090022C2
:1014990012138BAB077FCC1213B47F441213B4AF72
:0114A900033F
:0114AA00221F
:101436001214997BFE7A00793D1211C9783AEFF2BF
:0A144600E2700774FF783DF208F22F
:011450002279
:100EAF00817E0081800081630081710181610081F9
:100EBF006200816601816701816401816501817A28
:100ECF0000817B00817000817200817D0081600054
:100EDF00817700817900845600000000845C000057
:100EEF000000815200815403847300000000817F51
:100EFF0000816900813F01816A00814000816B00A0
:100F0F00814500814400814100814200814300817D
:100F1F007C00816C00814800814F00814600816810
:100F2F0000817800816F008155008150008147005A
:100F3F0082810000814900826D0000825A00008189
:050F4F0053FF81510079
:0B13FA00785AF208F27855F2786CF295
:10140500E4787AF27870F2C2B7C2A1FFFE12120A2E
:06141500E4FFFE02124894
:100F680053943F53933F53803F5396F15395F15316
:100F7800A0F153B27F53B17F53B07F43BA8090FF43
:100F8800F2E4F090FFF0F0A37464F090FF00E4F056
:100F9800A304F0A3E4F0A3F0A3F090FF10F0A304DF
:100FA800F0A3E4F0A3F0A3F090FF20F0A304F0A3D3
:100FB800E4F0A3F0A3F090FF30F0A304F0A3E4F072
:100FC800A3F0A3F090FF40F0A304F0A3E4F0A3F093
:100FD800A37408F090FF50E4F0A304F0A3E4F0A396
:100FE800F0A37408F0E4F5F175F53F43F58053BAC2
:020FF8007F2256
:10120A008F828E83E5824583700653F5FEC2B7222C
:10121A00AF82AE83E4FCFD7B64FAF9F8C3120CC713
:10122A00700653F5FED2B72243BA80AE83AF8290DE
:0E123A00FF00EEF0A3EFF053BA7F43F5012260
:101248008F828E83E5824583700653F5FDC2A12205
:10125800AF82AE83E4FCFD7B64FAF9F8C3120CC7D5
:10126800700653F5FDD2A12243BA80AE83AF8290B7
:0E127800FF10EEF0A3EFF053BA7F43F5022211
:101286008F828E83E5824583700653F5FBC2A222C8
:10129600AF82AE83E4FCFD7B64FAF9F8C3120CC797
:1012A600700653F5FBD2A22243BA80AE83AF82907A
:0E12B600FF20EEF0A3EFF053BA7F43F50422C1
:1012C4008F828E83E5824583700653F5F7C2A3228D
:1012D400AF82AE83E4FCFD7B64FAF9F8C3120CC759
:1012E400700653F5F7D2A32243BA80AE83AF82903F
:0E12F400FF30EEF0A3EFF053BA7F43F508226F
:10148300E4787BF27872F2C2A3C2A2FFFE12128644
:06149300E4FFFE0212C49A
:10108600788EEFF2787A7401F27870EBF2788EE26D
:10109600FF7866F27864EDF2E2B40119EFB4640603
:1010A6007F647E0080067866E2FF7E0012120AE404
:1010B600FFFE1212487864E2701B788EE2B4640672
:1010C6007F647E0080067866E2FF7E00121248E4A6
:0610D600FFFE12120A22C7
:1010DC00788FEFF2787B7401F27872EBF2788FE212
:1010EC00FF7867F27865EDF2E2B40119EFB46406AB
:1010FC007F647E0080067867E2FF7E001212C4E4F3
:10110C00FFFE1212867865E2701B788FE2B46406DB
:10111C007F647E0080067867E2FF7E00121286E410
:06112C00FFFE1212C422B6
:10146A00788EEFF27B0A7D017F1E1210DC785274AF
:09147A0001F2788EE27854F222AE
:100A8E0043C110121543788CEFF212154C788DEF8E
:100A9E00F2121555784CEFF2788CE2640160030285
:100AAE000C0608E26003020C06786AE26401600339
:100ABE00020C0618E264016003020C06121555784A
:100ACE004CEFF26011787EE26401600A7880E26495
:100ADE00016003020C06787EE2701478717402F2E3
:100AEE00787C14F2787EF27877F2E4FF12146A784A
:100AFE006FE2B4010F121405E47849F27881F2081E
:100B0E00F2786FF27880E270237860E2B4011D789B
:100B1E00717402F2788014F2E47877F27B0F7D0123
:100B2E007F64121086785AE4F20804F2786CE2645C
:100B3E0001703E1213FA7F0112146AE47871F27892
:100B4E0073120CE400000000787F7401F2E4785117
:100B5E00F27860F2786AF218F2787EF27880F278A3
:100B6E007CF27855F2786DF208F2785AF208F2D2E9
:100B7E00C27855E264017033F27851E2FFB4011B82
:100B8E00E47860F2785AF208F27855F27879F278D1
:100B9E006DF208F278717403F2D2C2EF700D7851D3
:100BAE0004F2E4FF12146AE47880F27871E26403CE
:100BBE007046784CE26401703F1213FA7F011214F2
:100BCE006A78717401F27873120CE40000000078F8
:100BDE007F7401F2E47851F27860F2786AF218F2DA
:100BEE00787EF27880F2787CF27855F2786DF208A1
:100BFE00F2785AF208F2D2C3784CE27020786AE2A8
:100C0E00701B18E27017788CE2B4010D08E27009BF
:0D0C1E007B017D017F3C121086C2C3C2C263
:010C2B0022A6
:030F540081830195
:0A130200788CEBF208EAF208E9F239
:10130C00E4FEFCAF05EFD394004019788CE2FB08A7
:10131C0008E2F92401F218E2FA3400F2120C2C2E35
:06132C00FE1F80E1AF0688
:011332002298
:04002600E4FD7F0571
:10002A00781A7455F208EFF208EDF2E408F208F2D1
:10003A000874FEF27811E27820F2E4FE74122EF8C7
:10004A00E2FC74212EF8ECF20EEEB404EFEF2D244C
:05005A0022F8740DF214
:01005F00227E
:1000660043C1107819E26401600302071B780BE2B2
:10007600645560030206F27810E2F460030206F2A9
:100086007838E2240AF8E2640D60030206F27BFE89
:100096007A00790B7838E224FEFD1213027838E2F2
:1000A6002409F8E26F60030206D17811E2147003A6
:1000B60002014814700302044924FE603824FD60DE
:1000C600680460030207147814E224FE600E0460DC
:1000D600030207147807E4F208048005E47807F2BF
:1000E60008F27803120CE400000000780A7401F2AA
:1000F60012002680497812E264026003020714FDAA
:100106007F0512002AE47825F27BFE7A00791A7DB3
:100116000C1213027826EFF27BFE7A00791A7D0E16
:1001260012133375C7200207147812E264016003C4
:10013600020714FD7F0512002A78717401F2E402A9
:1001460003757812E2120CFD016D01019C0201D8C3
:100156000302AF04033408036F0903920B03BD0EB9
:1001660004260F00000714E4FD7F0812002AE47835
:1001760025F2087403F2087410F208F27BFE7A0086
:10018600791A7D0F1213027829EFF27BFE7A007935
:100196001A7D110207117813E224FE600302071488
:1001A600E4FD7F0612002A78257401F208F2121582
:1001B60082BF0104E47826F27BFE7A00791A7D0D6F
:1001C6001213027827EFF27BFE7A00791A7D0F026E
:1001D60007117813E224FE606B146003020714E42F
:1001E600FD7F0612002A78257405F2E408F212143F
:1001F600FBBF01067826E24410F21214F2BF010694
:100206007826E24408F21214E9BF01067826E24491
:1002160004F21214E0BF01067826E24402F2121438
:10022600D7BF01067826E24401F27BFE7A00791AEE
:100236007D0D1213027827EFF27BFE7A00791A7D84
:100246000F020711E4FD7F0612002A78257405F2D5
:10025600E408F2121531BF01067826E24410F212C4
:100266001528BF01067826E24408F212151FBF01C1
:10027600067826E24404F2121516BF01067826E235
:100286004402F212150DBF01067826E24401F27B04
:10029600FE7A00791A7D0D1213027827EFF27BFEA3
:1002A6007A00791A7D0F0207117813E224FE6003A3
:1002B600020714E4FD7F0612002A78257407F2E48B
:1002C60008F2121543BF01067826E24401F2121520
:1002D6004CBF01067826E24402F2121555BF01060C
:1002E6007826E24404F212155EBF01067826E2443F
:1002F60008F2121567BF01067826E24410F21215BD
:1003060070BF01067826E24420F2121579BF010477
:100316007826E2F27BFE7A00791A7D0D12130278B6
:1003260027EFF27BFE7A00791A7D0F020711781308
:10033600E224FE6003020714E4FD7F0612002A7819
:100346003DE208E27825F2783DE2FF7826EFF27B7F
:10035600FE7A00791A7D0D1213027827EFF27BFEE2
:100366007A00791A7D0F0207111200267883E27847
:1003760025F27BFE7A00791A7D0C1213027826EF9D
:10038600F27BFE7A00791A7D0E02071112002620F2
:10039600C20778257401F28004E47825F27BFE7AA0
:1003A60000791A7D0C1213027826EFF27BFE7A0092
:1003B600791A7D0E0207117813E224FD6034046079
:1003C6000302071412002612153ABF0106E4782527
:1003D600F2800578257401F27BFE7A00791A7D0C8D
:1003E6001213027826EFF27BFE7A00791A7D0E024E
:1003F6000711120026121504BF0106E47825F280C3
:100406000578257401F27BFE7A00791A7D0C1213A9
:10041600027826EFF27BFE7A00791A7D0E0207112A
:100426001200267871E27825F27BFE7A00791A7D31
:100436000C1213027826EFF27BFE7A00791A7D0EF3
:100446000207117812E214700302052E24FA607373
:1004560024FB7003020602240960030207147814C1
:10046600E26401702AC2C2782520C203F2800374B6
:1004760001F21200267BFE7A00791A7D0C12130215
:100486007826EFF27BFE7A00791A7D0E0207117844
:1004960014E264026003020714D2C2782530C20354
:1004A600F280037401F21200267BFE7A00791A7D2F
:1004B6000C1213027826EFF27BFE7A00791A7D0E73
:1004C6000207117814E26401702AC2C3782520C39A
:1004D60003F280037401F21200267BFE7A00791A79
:1004E6007D0C1213027826EFF27BFE7A00791A7DD4
:1004F6000E0207117814E264026003020714D2C3E5
:10050600782530C303F280037401F21200267BFEC5
:100516007A00791A7D0C1213027826EFF27BFE7AA6
:1005260000791A7D0E0207117813E224FE60680432
:1005360060030207147814E26401702AD2B57825A4
:1005460030B503F280037401F21200267BFE7A00B6
:10055600791A7D0C1213027826EFF27BFE7A007967
:100566001A7D0E0207117814E26402702AC2B57869
:100576002520B503F280037401F21200267BFE7A71
:1005860000791A7D0C1213027826EFF27BFE7A00B0
:10059600791A7D0E0207117814E26401702AD2C915
:1005A600782530C903F280037401F21200267BFE1F
:1005B6007A00791A7D0C1213027826EFF27BFE7A06
:1005C60000791A7D0E0207117814E26402600302B4
:1005D6000714C2C9782520C903F280037401F212F8
:1005E60000267BFE7A00791A7D0C1213027826EF1C
:1005F600F27BFE7A00791A7D0E0207117813E22447
:10060600FD60680460030207147814E26401702D2B
:100616007B0A7D017F64121086E47825F2FD7F0552
:1006260012002A7BFE7A00791A7D0C1213027826B4
:10063600EFF27BFE7A00791A7D0E0207117814E23A
:1006460064027027121405E47825F2FD7F05120076
:100656002A7BFE7A00791A7D0C1213027826EFF2B5
:100666007BFE7A00791A7D0E0207117814E2640186
:10067600702C7B0A7D017F1E1210DCE47825F2FDCA
:100686007F0512002A7BFE7A00791A7D0C1213026E
:100696007826EFF27BFE7A00791A7D0E806D78144B
:1006A600E264027069121483E47825F2FD7F051274
:1006B600002A7BFE7A00791A7D0C1213027826EF47
:1006C600F27BFE7A00791A7D0E804012002678258C
:1006D6007402F27BFE7A00791A7D0C1213027826D8
:1006E600EFF27BFE7A00791A7D0E801F12002678C3
:1006F600257403F27BFE7A00791A7D0C12130278B8
:1007060026EFF27BFE7A00791A7D0E121333E47817
:0507160038F27819F231
:01071B0022BB
:100F570082840000828603E682880000828A00007D
:0E14C9005389FC758CEEE4F58AD2A9D28C22F0
:03000B0002071CCD
:10071C00C0E0C0F0C083C082C0D075D000C000C0A3
:0D072C0001C002C003C004C005C006C00724
:100739007889E22401F218E23400F27885E2240192
:10074900F218E23400F27887E22401F218E2340068
:10075900F218E264C8700218E270077884F208F2AD
:10076900B2B27887E2B4E80C18E2B40307E4F208FD
:10077900F21214367852E2640170497854E2701F1B
:10078900784DE27842F212155E784DEFF27842E246
:10079900B4010C784DE270071214837852E4F278B0
:1007A90054E2B4011F784EE27843F2121567784E8D
:1007B900EFF27843E2B4010C784EE2700712148329
:1007C9007852E4F27889E26402700218E260030266
:1007D90009107888F208F2784AE2783FF212154354
:1007E900784AEFF2783FE2B40109784AE270047876
:1007F9006904F2784BE27840F212154C784BEFF22B
:100809007840E2700B784BE2B40105786A7401F222
:10081900784CE27841F2121555784CEFF27841E2C2
:10082900FFB4010D784CE27008784504F2786BE466
:10083900F2EF700F784CE2B4010978447401F27850
:100849006BE4F2787CE264017031784FE27846F229
:10085900121570784FEFF27846E2FFB40109784F2C
:10086900E27004784804F27848E2B4010EEF700BA4
:10087900784FE2B4010578687401F27868E2B4014E
:10088900217878E204F2785AE4F208F27855F2789D
:1008990078E2B4C80DE4F27868F2786C04F278482A
:1008A900E4F27849E2B401317850E27847F212155E
:1008B900797850EFF27847E26F601E7882E224017E
:1008C900F218E23400F208E2641E700218E27009BC
:1008D9007881F208F2786F04F2785BE264017002C1
:1008E90018E27023786EE22401F218E23400F2C3B0
:1008F90008E2940818E29407400DE4F208F2785AE5
:10090900F208F2785504F27856E2FC08E2FD08E2B2
:10091900FE08E22401FFE43EFEE43DFDE43CFC78F0
:1009290056120CD8785CE2FC08E2FD08E2FE08E207
:100939002401FFE43EFEE43DFDE43CFC785C120C3E
:10094900D87870E275F0C8A4FFAEF0E4FCFD7856E3
:10095900E2FB08E2F908E2FA08E2CBF8C3120CC795
:100969004013787AE4F27870F27856120CE40000B9
:1009790000001214057872E275F0C8A4FFAEF0E425
:10098900FCFD785CE2FB08E2F908E2FA08E2CBF840
:10099900C3120CC74013787BE4F27872F2785C12C8
:1009A9000CE4000000001214837877E2B401217886
:1009B9008BE22401F218E23400F208E2B45811186B
:1009C900E2B4020CE4F208F2786004F27877E4F217
:1009D900787FE2B4014C7873E2FC08E2FD08E2FE9C
:1009E90008E22401FFE43EFEE43DFDE43CFC7873AB
:1009F900120CD8E47F407E06FDFC7873E2FB08E226
:100A0900F908E2FA08E2CBF8C3120CC7401478736C
:100A1900120CE40000000078717401F2D2C3787FEF
:100A2900E4F27808E26401700218E2703D7803E2AA
:100A3900FC08E2FD08E2FE08E22401FFE43EFEE4D0
:100A49003DFDE43CFC7803120CD87F407E0D7D030C
:100A59007C007803E2FB08E2F908E2FA08E2CBF845
:0A0A6900C3120CC74004780AE4F23F
:100A7300D007D006D005D004D003D002D001D000D7
:0B0A8300D0D0D082D083D0F0D0E03281
:1014AB00438E0475D7AE75D6FB43AF04438E102223
:0300630002000395
:0100030032CA
:10100600020D78E493A3F8E493A34003F68001F27B
:1010160008DFF48029E493A3F85407240CC8C333EB
:10102600C4540F4420C8834004F456800146F6DFBA
:10103600E4800B0102040810204080900E90E47EAC
:10104600019360BCA3FF543F30E509541FFEE493AF
:10105600A360010ECF54C025E060A840B8E493A376
:10106600FAE493A3F8E493A3C8C582C8CAC583CAA1
:10107600F0A3C8C582C8CAC583CADFE9DEE780BE59
:010F67000089
:100C2C00BB010689828A83E0225002E722BBFE02C6
:090C3C00E32289828A83E49322F9
:100C4500BB010CE58229F582E5833AF583E0225064
:100C550006E92582F8E622BBFE06E92582F8E222AE
:0D0C6500E58229F582E5833AF583E49322C8
:100C7200C2D5EC30E709B2D5E4C39DFDE49CFCEE9D
:100C820030E715B2D5E4C39FFFE49EFE120D23C3E5
:100C9200E49DFDE49CFC8003120D2330D507C3E4E0
:060CA2009FFFE49EFE220C
:100CA800BB010A89828A83F0E5F0A3F0225006F797
:0F0CB80009A7F01922BBFE06F3E5F009F3192294
:100CC700EB9FF5F0EA9E42F0E99D42F0E89C45F083
:010CD70022FA
:0C0CD800ECF208EDF208EEF208EFF22258
:100CE400D083D082E493F208740193F208740293DF
:090CF400F208740393F274047316
:100CFD00D083D082F8E4937012740193700DA3A386
:100D0D0093F8740193F5828883E473740293686099
:060D1D00EFA3A3A380DF99
:100D2300BC000BBE0029EF8DF084FFADF022E4CCB4
:100D3300F875F008EF2FFFEE33FEEC33FCEE9DEC7D
:100D4300984005FCEE9DFE0FD5F0E9E4CEFD22EDC3
:100D5300F8F5F0EE8420D21CFEADF075F008EF2F0D
:100D6300FFED33FD4007985006D5F0F222C398FDFE
:050D73000FD5F0EA229B
:00000001FF
